{
  "_format": "hh-sol-artifact-1",
  "contractName": "DistributedMedicalDatabase",
  "sourceName": "contracts/DistributedMedicalDatabase.sol",
  "abi": [
    {
      "inputs": [],
      "stateMutability": "nonpayable",
      "type": "constructor"
    },
    {
      "anonymous": false,
      "inputs": [
        {
          "indexed": false,
          "internalType": "uint256",
          "name": "id",
          "type": "uint256"
        },
        {
          "indexed": true,
          "internalType": "address",
          "name": "from",
          "type": "address"
        },
        {
          "indexed": false,
          "internalType": "string",
          "name": "familyname",
          "type": "string"
        },
        {
          "indexed": false,
          "internalType": "string",
          "name": "firstname",
          "type": "string"
        },
        {
          "indexed": false,
          "internalType": "string",
          "name": "furiganafamilyname",
          "type": "string"
        },
        {
          "indexed": false,
          "internalType": "string",
          "name": "furiganafirstname",
          "type": "string"
        },
        {
          "indexed": false,
          "internalType": "string",
          "name": "workplace",
          "type": "string"
        },
        {
          "indexed": false,
          "internalType": "string",
          "name": "occupation",
          "type": "string"
        },
        {
          "indexed": false,
          "internalType": "string",
          "name": "picture",
          "type": "string"
        },
        {
          "indexed": false,
          "internalType": "uint256",
          "name": "lasttimestamp",
          "type": "uint256"
        }
      ],
      "name": "NewBasicInformationAboutHealthcareWorker",
      "type": "event"
    },
    {
      "anonymous": false,
      "inputs": [
        {
          "indexed": false,
          "internalType": "uint256",
          "name": "id",
          "type": "uint256"
        },
        {
          "indexed": true,
          "internalType": "address",
          "name": "from",
          "type": "address"
        },
        {
          "indexed": false,
          "internalType": "string",
          "name": "familyname",
          "type": "string"
        },
        {
          "indexed": false,
          "internalType": "string",
          "name": "firstname",
          "type": "string"
        },
        {
          "indexed": false,
          "internalType": "string",
          "name": "furiganafamilyname",
          "type": "string"
        },
        {
          "indexed": false,
          "internalType": "string",
          "name": "furiganafirstname",
          "type": "string"
        },
        {
          "indexed": false,
          "internalType": "string",
          "name": "bloodtype",
          "type": "string"
        },
        {
          "indexed": false,
          "internalType": "uint256",
          "name": "lasttimestamp",
          "type": "uint256"
        }
      ],
      "name": "NewBasicInformationAboutPatient",
      "type": "event"
    },
    {
      "inputs": [
        {
          "internalType": "uint256",
          "name": "_num",
          "type": "uint256"
        }
      ],
      "name": "apply_for_ones_authority_to_access",
      "outputs": [],
      "stateMutability": "nonpayable",
      "type": "function"
    },
    {
      "inputs": [
        {
          "internalType": "uint256",
          "name": "_num",
          "type": "uint256"
        }
      ],
      "name": "apply_for_ones_authority_to_edit",
      "outputs": [],
      "stateMutability": "nonpayable",
      "type": "function"
    },
    {
      "inputs": [
        {
          "internalType": "uint256",
          "name": "_num",
          "type": "uint256"
        }
      ],
      "name": "check_if_healthcare_worker_has_ones_authority_to_access",
      "outputs": [
        {
          "internalType": "bool",
          "name": "success",
          "type": "bool"
        }
      ],
      "stateMutability": "view",
      "type": "function"
    },
    {
      "inputs": [
        {
          "internalType": "uint256",
          "name": "_num",
          "type": "uint256"
        }
      ],
      "name": "check_if_healthcare_worker_has_ones_authority_to_edit",
      "outputs": [
        {
          "internalType": "bool",
          "name": "success",
          "type": "bool"
        }
      ],
      "stateMutability": "view",
      "type": "function"
    },
    {
      "inputs": [
        {
          "internalType": "uint256",
          "name": "_num",
          "type": "uint256"
        }
      ],
      "name": "check_if_healthcare_worker_is_applying_for_ones_authority_to_access",
      "outputs": [
        {
          "internalType": "bool",
          "name": "success",
          "type": "bool"
        }
      ],
      "stateMutability": "view",
      "type": "function"
    },
    {
      "inputs": [
        {
          "internalType": "uint256",
          "name": "_num",
          "type": "uint256"
        }
      ],
      "name": "check_if_healthcare_worker_is_applying_for_ones_authority_to_edit",
      "outputs": [
        {
          "internalType": "bool",
          "name": "success",
          "type": "bool"
        }
      ],
      "stateMutability": "view",
      "type": "function"
    },
    {
      "inputs": [],
      "name": "check_if_healthcare_worker_registered",
      "outputs": [
        {
          "internalType": "bool",
          "name": "success",
          "type": "bool"
        }
      ],
      "stateMutability": "view",
      "type": "function"
    },
    {
      "inputs": [],
      "name": "check_if_patient_registered",
      "outputs": [
        {
          "internalType": "bool",
          "name": "success",
          "type": "bool"
        }
      ],
      "stateMutability": "view",
      "type": "function"
    },
    {
      "inputs": [
        {
          "internalType": "address",
          "name": "_patient",
          "type": "address"
        }
      ],
      "name": "check_if_patient_registered_by_others",
      "outputs": [
        {
          "internalType": "bool",
          "name": "success",
          "type": "bool"
        }
      ],
      "stateMutability": "view",
      "type": "function"
    },
    {
      "inputs": [
        {
          "internalType": "address",
          "name": "_p",
          "type": "address"
        },
        {
          "internalType": "string",
          "name": "_fa",
          "type": "string"
        },
        {
          "internalType": "string",
          "name": "_fi",
          "type": "string"
        },
        {
          "internalType": "string",
          "name": "_furiganafa",
          "type": "string"
        },
        {
          "internalType": "string",
          "name": "_furiganafi",
          "type": "string"
        },
        {
          "internalType": "string",
          "name": "_b",
          "type": "string"
        }
      ],
      "name": "edit_basic_information_content_for_patient",
      "outputs": [],
      "stateMutability": "nonpayable",
      "type": "function"
    },
    {
      "inputs": [
        {
          "internalType": "string",
          "name": "_familyname",
          "type": "string"
        },
        {
          "internalType": "string",
          "name": "_firstname",
          "type": "string"
        },
        {
          "internalType": "string",
          "name": "_furiganafamilyname",
          "type": "string"
        },
        {
          "internalType": "string",
          "name": "_furiganafirstname",
          "type": "string"
        },
        {
          "internalType": "string",
          "name": "_workplace",
          "type": "string"
        },
        {
          "internalType": "string",
          "name": "_occupation",
          "type": "string"
        },
        {
          "internalType": "string",
          "name": "_picture",
          "type": "string"
        }
      ],
      "name": "edit_basic_information_for_healthcareworker",
      "outputs": [],
      "stateMutability": "nonpayable",
      "type": "function"
    },
    {
      "inputs": [
        {
          "internalType": "address",
          "name": "_patientwallet",
          "type": "address"
        },
        {
          "internalType": "string",
          "name": "_familyname",
          "type": "string"
        },
        {
          "internalType": "string",
          "name": "_firstname",
          "type": "string"
        },
        {
          "internalType": "string",
          "name": "_furiganafamilyname",
          "type": "string"
        },
        {
          "internalType": "string",
          "name": "_furiganafirstname",
          "type": "string"
        },
        {
          "internalType": "string",
          "name": "_bloodtype",
          "type": "string"
        }
      ],
      "name": "edit_basic_information_for_patient_by_others",
      "outputs": [],
      "stateMutability": "nonpayable",
      "type": "function"
    },
    {
      "inputs": [
        {
          "internalType": "string",
          "name": "_familyname",
          "type": "string"
        },
        {
          "internalType": "string",
          "name": "_firstname",
          "type": "string"
        },
        {
          "internalType": "string",
          "name": "_furiganafamilyname",
          "type": "string"
        },
        {
          "internalType": "string",
          "name": "_furiganafirstname",
          "type": "string"
        },
        {
          "internalType": "string",
          "name": "_bloodtype",
          "type": "string"
        }
      ],
      "name": "edit_basic_information_for_patient_by_patient",
      "outputs": [],
      "stateMutability": "nonpayable",
      "type": "function"
    },
    {
      "inputs": [
        {
          "internalType": "uint256",
          "name": "_num",
          "type": "uint256"
        }
      ],
      "name": "get_applying_list_to_access",
      "outputs": [
        {
          "internalType": "address[]",
          "name": "list",
          "type": "address[]"
        }
      ],
      "stateMutability": "view",
      "type": "function"
    },
    {
      "inputs": [
        {
          "internalType": "uint256",
          "name": "_num",
          "type": "uint256"
        }
      ],
      "name": "get_applying_list_to_edit",
      "outputs": [
        {
          "internalType": "address[]",
          "name": "list",
          "type": "address[]"
        }
      ],
      "stateMutability": "view",
      "type": "function"
    },
    {
      "inputs": [
        {
          "internalType": "address",
          "name": "_patient",
          "type": "address"
        }
      ],
      "name": "get_basic_information_by_others",
      "outputs": [
        {
          "components": [
            {
              "internalType": "uint256",
              "name": "id",
              "type": "uint256"
            },
            {
              "internalType": "address",
              "name": "patient",
              "type": "address"
            },
            {
              "internalType": "string",
              "name": "familyname",
              "type": "string"
            },
            {
              "internalType": "string",
              "name": "firstname",
              "type": "string"
            },
            {
              "internalType": "string",
              "name": "furiganafamilyname",
              "type": "string"
            },
            {
              "internalType": "string",
              "name": "furiganafirstname",
              "type": "string"
            },
            {
              "internalType": "string",
              "name": "bloodtype",
              "type": "string"
            },
            {
              "internalType": "uint256",
              "name": "lasttimestamp",
              "type": "uint256"
            }
          ],
          "internalType": "struct DistributedMedicalDatabase.BasicInformationAboutPatient",
          "name": "",
          "type": "tuple"
        }
      ],
      "stateMutability": "view",
      "type": "function"
    },
    {
      "inputs": [],
      "name": "get_basic_information_by_patient",
      "outputs": [
        {
          "components": [
            {
              "internalType": "uint256",
              "name": "id",
              "type": "uint256"
            },
            {
              "internalType": "address",
              "name": "patient",
              "type": "address"
            },
            {
              "internalType": "string",
              "name": "familyname",
              "type": "string"
            },
            {
              "internalType": "string",
              "name": "firstname",
              "type": "string"
            },
            {
              "internalType": "string",
              "name": "furiganafamilyname",
              "type": "string"
            },
            {
              "internalType": "string",
              "name": "furiganafirstname",
              "type": "string"
            },
            {
              "internalType": "string",
              "name": "bloodtype",
              "type": "string"
            },
            {
              "internalType": "uint256",
              "name": "lasttimestamp",
              "type": "uint256"
            }
          ],
          "internalType": "struct DistributedMedicalDatabase.BasicInformationAboutPatient",
          "name": "",
          "type": "tuple"
        }
      ],
      "stateMutability": "view",
      "type": "function"
    },
    {
      "inputs": [],
      "name": "get_basic_information_for_healthcare_worker",
      "outputs": [
        {
          "components": [
            {
              "internalType": "uint256",
              "name": "id",
              "type": "uint256"
            },
            {
              "internalType": "address",
              "name": "healthcareworker",
              "type": "address"
            },
            {
              "internalType": "string",
              "name": "familyname",
              "type": "string"
            },
            {
              "internalType": "string",
              "name": "firstname",
              "type": "string"
            },
            {
              "internalType": "string",
              "name": "furiganafamilyname",
              "type": "string"
            },
            {
              "internalType": "string",
              "name": "furiganafirstname",
              "type": "string"
            },
            {
              "internalType": "string",
              "name": "workplace",
              "type": "string"
            },
            {
              "internalType": "string",
              "name": "occupation",
              "type": "string"
            },
            {
              "internalType": "string",
              "name": "picture",
              "type": "string"
            },
            {
              "internalType": "uint256",
              "name": "lasttimestamp",
              "type": "uint256"
            }
          ],
          "internalType": "struct DistributedMedicalDatabase.BasicInformationAboutHealthcareWorker",
          "name": "",
          "type": "tuple"
        }
      ],
      "stateMutability": "view",
      "type": "function"
    },
    {
      "inputs": [
        {
          "internalType": "address",
          "name": "healthcare_worker",
          "type": "address"
        }
      ],
      "name": "get_basic_information_for_healthcare_worker_by_patients",
      "outputs": [
        {
          "components": [
            {
              "internalType": "uint256",
              "name": "id",
              "type": "uint256"
            },
            {
              "internalType": "address",
              "name": "healthcareworker",
              "type": "address"
            },
            {
              "internalType": "string",
              "name": "familyname",
              "type": "string"
            },
            {
              "internalType": "string",
              "name": "firstname",
              "type": "string"
            },
            {
              "internalType": "string",
              "name": "furiganafamilyname",
              "type": "string"
            },
            {
              "internalType": "string",
              "name": "furiganafirstname",
              "type": "string"
            },
            {
              "internalType": "string",
              "name": "workplace",
              "type": "string"
            },
            {
              "internalType": "string",
              "name": "occupation",
              "type": "string"
            },
            {
              "internalType": "string",
              "name": "picture",
              "type": "string"
            },
            {
              "internalType": "uint256",
              "name": "lasttimestamp",
              "type": "uint256"
            }
          ],
          "internalType": "struct DistributedMedicalDatabase.BasicInformationAboutHealthcareWorker",
          "name": "",
          "type": "tuple"
        }
      ],
      "stateMutability": "view",
      "type": "function"
    },
    {
      "inputs": [
        {
          "internalType": "address",
          "name": "_patient",
          "type": "address"
        }
      ],
      "name": "get_data_index_by_others",
      "outputs": [
        {
          "internalType": "uint256",
          "name": "num",
          "type": "uint256"
        }
      ],
      "stateMutability": "view",
      "type": "function"
    },
    {
      "inputs": [],
      "name": "get_data_index_by_patient",
      "outputs": [
        {
          "internalType": "uint256",
          "name": "num",
          "type": "uint256"
        }
      ],
      "stateMutability": "view",
      "type": "function"
    },
    {
      "inputs": [
        {
          "internalType": "address",
          "name": "_patient",
          "type": "address"
        }
      ],
      "name": "get_medical_data_by_others",
      "outputs": [
        {
          "components": [
            {
              "internalType": "uint256",
              "name": "id",
              "type": "uint256"
            },
            {
              "internalType": "address",
              "name": "patient",
              "type": "address"
            },
            {
              "internalType": "string",
              "name": "familyname",
              "type": "string"
            },
            {
              "internalType": "string",
              "name": "firstname",
              "type": "string"
            },
            {
              "internalType": "string",
              "name": "furiganafamilyname",
              "type": "string"
            },
            {
              "internalType": "string",
              "name": "furiganafirstname",
              "type": "string"
            },
            {
              "internalType": "string",
              "name": "bloodtype",
              "type": "string"
            },
            {
              "internalType": "uint256",
              "name": "lasttimestamp",
              "type": "uint256"
            }
          ],
          "internalType": "struct DistributedMedicalDatabase.BasicInformationAboutPatient",
          "name": "",
          "type": "tuple"
        }
      ],
      "stateMutability": "view",
      "type": "function"
    },
    {
      "inputs": [],
      "name": "get_medical_data_by_patient",
      "outputs": [
        {
          "components": [
            {
              "internalType": "uint256",
              "name": "id",
              "type": "uint256"
            },
            {
              "internalType": "address",
              "name": "patient",
              "type": "address"
            },
            {
              "internalType": "string",
              "name": "familyname",
              "type": "string"
            },
            {
              "internalType": "string",
              "name": "firstname",
              "type": "string"
            },
            {
              "internalType": "string",
              "name": "furiganafamilyname",
              "type": "string"
            },
            {
              "internalType": "string",
              "name": "furiganafirstname",
              "type": "string"
            },
            {
              "internalType": "string",
              "name": "bloodtype",
              "type": "string"
            },
            {
              "internalType": "uint256",
              "name": "lasttimestamp",
              "type": "uint256"
            }
          ],
          "internalType": "struct DistributedMedicalDatabase.BasicInformationAboutPatient",
          "name": "",
          "type": "tuple"
        }
      ],
      "stateMutability": "view",
      "type": "function"
    },
    {
      "inputs": [
        {
          "internalType": "uint256",
          "name": "_num",
          "type": "uint256"
        },
        {
          "internalType": "address",
          "name": "_applicant",
          "type": "address"
        }
      ],
      "name": "give_healthcare_worker_authority_to_access",
      "outputs": [],
      "stateMutability": "nonpayable",
      "type": "function"
    },
    {
      "inputs": [
        {
          "internalType": "uint256",
          "name": "_num",
          "type": "uint256"
        },
        {
          "internalType": "address",
          "name": "_applicant",
          "type": "address"
        }
      ],
      "name": "give_healthcare_worker_authority_to_edit",
      "outputs": [],
      "stateMutability": "nonpayable",
      "type": "function"
    },
    {
      "inputs": [
        {
          "internalType": "uint256",
          "name": "_num",
          "type": "uint256"
        }
      ],
      "name": "give_myself_authority_to_access",
      "outputs": [],
      "stateMutability": "nonpayable",
      "type": "function"
    },
    {
      "inputs": [
        {
          "internalType": "uint256",
          "name": "_num",
          "type": "uint256"
        }
      ],
      "name": "give_myself_authority_to_edit",
      "outputs": [],
      "stateMutability": "nonpayable",
      "type": "function"
    },
    {
      "inputs": [
        {
          "internalType": "uint256",
          "name": "_num",
          "type": "uint256"
        },
        {
          "internalType": "address",
          "name": "_hw",
          "type": "address"
        }
      ],
      "name": "patient_check_if_healthcare_worker_has_ones_authority_to_access",
      "outputs": [
        {
          "internalType": "bool",
          "name": "success",
          "type": "bool"
        }
      ],
      "stateMutability": "view",
      "type": "function"
    },
    {
      "inputs": [
        {
          "internalType": "uint256",
          "name": "_num",
          "type": "uint256"
        },
        {
          "internalType": "address",
          "name": "_hw",
          "type": "address"
        }
      ],
      "name": "patient_check_if_healthcare_worker_has_ones_authority_to_edit",
      "outputs": [
        {
          "internalType": "bool",
          "name": "success",
          "type": "bool"
        }
      ],
      "stateMutability": "view",
      "type": "function"
    },
    {
      "inputs": [
        {
          "internalType": "uint256",
          "name": "_num",
          "type": "uint256"
        },
        {
          "internalType": "address",
          "name": "_hw",
          "type": "address"
        }
      ],
      "name": "patient_check_if_healthcare_worker_is_applying_for_ones_authority_to_access",
      "outputs": [
        {
          "internalType": "bool",
          "name": "success",
          "type": "bool"
        }
      ],
      "stateMutability": "view",
      "type": "function"
    },
    {
      "inputs": [
        {
          "internalType": "uint256",
          "name": "_num",
          "type": "uint256"
        },
        {
          "internalType": "address",
          "name": "_hw",
          "type": "address"
        }
      ],
      "name": "patient_check_if_healthcare_worker_is_applying_for_ones_authority_to_edit",
      "outputs": [
        {
          "internalType": "bool",
          "name": "success",
          "type": "bool"
        }
      ],
      "stateMutability": "view",
      "type": "function"
    },
    {
      "inputs": [
        {
          "internalType": "address",
          "name": "_p",
          "type": "address"
        },
        {
          "internalType": "string",
          "name": "_fa",
          "type": "string"
        },
        {
          "internalType": "string",
          "name": "_fi",
          "type": "string"
        },
        {
          "internalType": "string",
          "name": "_furiganafa",
          "type": "string"
        },
        {
          "internalType": "string",
          "name": "_furiganafi",
          "type": "string"
        },
        {
          "internalType": "string",
          "name": "_b",
          "type": "string"
        },
        {
          "internalType": "bool",
          "name": "_isOthers",
          "type": "bool"
        }
      ],
      "name": "register_basic_information_content_for_patient",
      "outputs": [],
      "stateMutability": "nonpayable",
      "type": "function"
    },
    {
      "inputs": [
        {
          "internalType": "string",
          "name": "_familyname",
          "type": "string"
        },
        {
          "internalType": "string",
          "name": "_firstname",
          "type": "string"
        },
        {
          "internalType": "string",
          "name": "_furiganafamilyname",
          "type": "string"
        },
        {
          "internalType": "string",
          "name": "_furiganafirstname",
          "type": "string"
        },
        {
          "internalType": "string",
          "name": "_workplace",
          "type": "string"
        },
        {
          "internalType": "string",
          "name": "_occupation",
          "type": "string"
        },
        {
          "internalType": "string",
          "name": "_picture",
          "type": "string"
        }
      ],
      "name": "register_basic_information_for_healthcareworker",
      "outputs": [],
      "stateMutability": "nonpayable",
      "type": "function"
    },
    {
      "inputs": [
        {
          "internalType": "address",
          "name": "_patientwallet",
          "type": "address"
        },
        {
          "internalType": "string",
          "name": "_familyname",
          "type": "string"
        },
        {
          "internalType": "string",
          "name": "_firstname",
          "type": "string"
        },
        {
          "internalType": "string",
          "name": "_furiganafamilyname",
          "type": "string"
        },
        {
          "internalType": "string",
          "name": "_furiganafirstname",
          "type": "string"
        },
        {
          "internalType": "string",
          "name": "_bloodtype",
          "type": "string"
        }
      ],
      "name": "register_basic_information_for_patient_by_others",
      "outputs": [],
      "stateMutability": "nonpayable",
      "type": "function"
    },
    {
      "inputs": [
        {
          "internalType": "string",
          "name": "_familyname",
          "type": "string"
        },
        {
          "internalType": "string",
          "name": "_firstname",
          "type": "string"
        },
        {
          "internalType": "string",
          "name": "_furiganafamilyname",
          "type": "string"
        },
        {
          "internalType": "string",
          "name": "_furiganafirstname",
          "type": "string"
        },
        {
          "internalType": "string",
          "name": "_bloodtype",
          "type": "string"
        }
      ],
      "name": "register_basic_information_for_patient_by_patient",
      "outputs": [],
      "stateMutability": "nonpayable",
      "type": "function"
    },
    {
      "inputs": [
        {
          "internalType": "uint256",
          "name": "_num",
          "type": "uint256"
        },
        {
          "internalType": "address",
          "name": "_applicant",
          "type": "address"
        }
      ],
      "name": "usurp_healthcare_worker_ones_authority_to_access",
      "outputs": [],
      "stateMutability": "nonpayable",
      "type": "function"
    },
    {
      "inputs": [
        {
          "internalType": "uint256",
          "name": "_num",
          "type": "uint256"
        },
        {
          "internalType": "address",
          "name": "_applicant",
          "type": "address"
        }
      ],
      "name": "usurp_healthcare_worker_ones_authority_to_edit",
      "outputs": [],
      "stateMutability": "nonpayable",
      "type": "function"
    },
    {
      "inputs": [
        {
          "internalType": "uint256",
          "name": "_num",
          "type": "uint256"
        }
      ],
      "name": "usurp_myself_ones_authority_to_access",
      "outputs": [],
      "stateMutability": "nonpayable",
      "type": "function"
    },
    {
      "inputs": [
        {
          "internalType": "uint256",
          "name": "_num",
          "type": "uint256"
        }
      ],
      "name": "usurp_myself_ones_authority_to_edit",
      "outputs": [],
      "stateMutability": "nonpayable",
      "type": "function"
    },
    {
      "inputs": [
        {
          "internalType": "string",
          "name": "_pass",
          "type": "string"
        }
      ],
      "name": "verify_password",
      "outputs": [
        {
          "internalType": "bool",
          "name": "success",
          "type": "bool"
        }
      ],
      "stateMutability": "pure",
      "type": "function"
    }
  ],
  "bytecode": "0x60806040523480156200001157600080fd5b506200005d6040518060400160405280602081526020017f48657265206973206d7920666972737420736d61727420636f6e7472616374218152506200006360201b62003efc1760201c565b620001f7565b62000103816040516024016200007a9190620001d3565b6040516020818303038152906040527f41304fac000000000000000000000000000000000000000000000000000000007bffffffffffffffffffffffffffffffffffffffffffffffffffffffff19166020820180517bffffffffffffffffffffffffffffffffffffffffffffffffffffffff83818316178352505050506200010660201b60201c565b50565b60008151905060006a636f6e736f6c652e6c6f679050602083016000808483855afa5050505050565b600081519050919050565b600082825260208201905092915050565b60005b838110156200016b5780820151818401526020810190506200014e565b838111156200017b576000848401525b50505050565b6000601f19601f8301169050919050565b60006200019f826200012f565b620001ab81856200013a565b9350620001bd8185602086016200014b565b620001c88162000181565b840191505092915050565b60006020820190508181036000830152620001ef818462000192565b905092915050565b6151a480620002076000396000f3fe608060405234801561001057600080fd5b50600436106102475760003560e01c8063996bed7b1161013b578063d09535a6116100b8578063f5d84cb31161007c578063f5d84cb314610756578063f9ec9f7014610786578063fa2ca3db146107a4578063fb9c6d04146107c0578063fe009e63146107dc57610247565b8063d09535a6146106c6578063dc973197146106e4578063e38a765314610700578063eddeabd21461071c578063f444218b1461073857610247565b8063aeaca6c5116100ff578063aeaca6c5146105fe578063b3f38f181461062e578063b8e9848b1461065e578063b90f78b51461067a578063b98341b2146106aa57610247565b8063996bed7b1461054a5780639a62a0db1461057a5780639f6bbc5c14610596578063a58d0520146105b2578063a6bdf5f2146105e257610247565b806346c92fd7116101c957806355fff1d31161018d57806355fff1d31461048257806362a012fa146104b2578063664e1f2f146104ce578063822143a1146104fe578063969bc9261461052e57610247565b806346c92fd7146103de5780634caa63661461040e5780634e095f9c1461042c5780634e7a5b8a1461044a57806352d738611461046657610247565b80632945d5f2116102105780632945d5f2146103025780632ba8e21f146103325780632e79a8dc1461034e578063339cbb641461037e5780633f5e1ed4146103ae57610247565b8062359a4b1461024c57806310bb2a6a1461027c5780631100c99a1461029a578063149f9366146102b65780631d3fe6f3146102e6575b600080fd5b610266600480360381019061026191906142fc565b6107f8565b60405161027391906144b6565b60405180910390f35b610284610805565b60405161029191906145dc565b60405180910390f35b6102b460048036038101906102af919061462a565b610d1b565b005b6102d060048036038101906102cb91906142fc565b610d90565b6040516102dd9190614672565b60405180910390f35b61030060048036038101906102fb91906147c2565b610de6565b005b61031c600480360381019061031791906148db565b610f07565b6040516103299190614672565b60405180910390f35b61034c6004803603810190610347919061462a565b610f77565b005b6103686004803603810190610363919061462a565b611046565b6040516103759190614672565b60405180910390f35b6103986004803603810190610393919061462a565b6110b5565b6040516103a591906149ca565b60405180910390f35b6103c860048036038101906103c391906148db565b61115f565b6040516103d59190614672565b60405180910390f35b6103f860048036038101906103f3919061462a565b6111cf565b6040516104059190614672565b60405180910390f35b61041661123e565b6040516104239190614672565b60405180910390f35b610434611292565b60405161044191906144b6565b60405180910390f35b610464600480360381019061045f91906149ec565b61129d565b005b610480600480360381019061047b91906148db565b611690565b005b61049c600480360381019061049791906142fc565b611760565b6040516104a991906144b6565b60405180910390f35b6104cc60048036038101906104c7919061462a565b611c09565b005b6104e860048036038101906104e391906142fc565b611cd8565b6040516104f591906145dc565b60405180910390f35b6105186004803603810190610513919061462a565b61219a565b6040516105259190614672565b60405180910390f35b610548600480360381019061054391906147c2565b612209565b005b610564600480360381019061055f919061462a565b6125ac565b6040516105719190614672565b60405180910390f35b610594600480360381019061058f91906147c2565b61261b565b005b6105b060048036038101906105ab919061462a565b612689565b005b6105cc60048036038101906105c791906148db565b6126fe565b6040516105d99190614672565b60405180910390f35b6105fc60048036038101906105f791906148db565b61276e565b005b610618600480360381019061061391906148db565b6127e4565b6040516106259190614672565b60405180910390f35b6106486004803603810190610643919061462a565b612854565b60405161065591906149ca565b60405180910390f35b61067860048036038101906106739190614b7e565b6128fe565b005b610694600480360381019061068f91906142fc565b612e1a565b6040516106a19190614cbb565b60405180910390f35b6106c460048036038101906106bf91906148db565b612f0f565b005b6106ce612fdf565b6040516106db9190614cbb565b60405180910390f35b6106fe60048036038101906106f991906149ec565b61307c565b005b61071a6004803603810190610715919061462a565b61357e565b005b610736600480360381019061073191906148db565b6136b2565b005b610740613728565b60405161074d91906144b6565b60405180910390f35b610770600480360381019061076b9190614cd6565b613b5e565b60405161077d9190614672565b60405180910390f35b61078e613bf9565b60405161079b9190614672565b60405180910390f35b6107be60048036038101906107b99190614d1f565b613c4d565b005b6107da60048036038101906107d59190614d1f565b613c64565b005b6107f660048036038101906107f1919061462a565b613dc8565b005b610800614123565b919050565b61080d61417e565b600760003373ffffffffffffffffffffffffffffffffffffffff1673ffffffffffffffffffffffffffffffffffffffff16815260200190815260200160002060009054906101000a900460ff1661086357600080fd5b600660003373ffffffffffffffffffffffffffffffffffffffff1673ffffffffffffffffffffffffffffffffffffffff16815260200190815260200160002060405180610140016040529081600082015481526020016001820160009054906101000a900473ffffffffffffffffffffffffffffffffffffffff1673ffffffffffffffffffffffffffffffffffffffff1673ffffffffffffffffffffffffffffffffffffffff16815260200160028201805461091e90614e55565b80601f016020809104026020016040519081016040528092919081815260200182805461094a90614e55565b80156109975780601f1061096c57610100808354040283529160200191610997565b820191906000526020600020905b81548152906001019060200180831161097a57829003601f168201915b505050505081526020016003820180546109b090614e55565b80601f01602080910402602001604051908101604052809291908181526020018280546109dc90614e55565b8015610a295780601f106109fe57610100808354040283529160200191610a29565b820191906000526020600020905b815481529060010190602001808311610a0c57829003601f168201915b50505050508152602001600482018054610a4290614e55565b80601f0160208091040260200160405190810160405280929190818152602001828054610a6e90614e55565b8015610abb5780601f10610a9057610100808354040283529160200191610abb565b820191906000526020600020905b815481529060010190602001808311610a9e57829003601f168201915b50505050508152602001600582018054610ad490614e55565b80601f0160208091040260200160405190810160405280929190818152602001828054610b0090614e55565b8015610b4d5780601f10610b2257610100808354040283529160200191610b4d565b820191906000526020600020905b815481529060010190602001808311610b3057829003601f168201915b50505050508152602001600682018054610b6690614e55565b80601f0160208091040260200160405190810160405280929190818152602001828054610b9290614e55565b8015610bdf5780601f10610bb457610100808354040283529160200191610bdf565b820191906000526020600020905b815481529060010190602001808311610bc257829003601f168201915b50505050508152602001600782018054610bf890614e55565b80601f0160208091040260200160405190810160405280929190818152602001828054610c2490614e55565b8015610c715780601f10610c4657610100808354040283529160200191610c71565b820191906000526020600020905b815481529060010190602001808311610c5457829003601f168201915b50505050508152602001600882018054610c8a90614e55565b80601f0160208091040260200160405190810160405280929190818152602001828054610cb690614e55565b8015610d035780601f10610cd857610100808354040283529160200191610d03565b820191906000526020600020905b815481529060010190602001808311610ce657829003601f168201915b50505050508152602001600982015481525050905090565b600060026000838152602001908152602001600020905060008160010160003373ffffffffffffffffffffffffffffffffffffffff1673ffffffffffffffffffffffffffffffffffffffff16815260200190815260200160002060006101000a81548160ff0219169083151502179055505050565b6000600360008373ffffffffffffffffffffffffffffffffffffffff1673ffffffffffffffffffffffffffffffffffffffff16815260200190815260200160002060009054906101000a900460ff169050919050565b600760003373ffffffffffffffffffffffffffffffffffffffff1673ffffffffffffffffffffffffffffffffffffffff16815260200190815260200160002060009054906101000a900460ff16610e3c57600080fd5b6000600460008873ffffffffffffffffffffffffffffffffffffffff1673ffffffffffffffffffffffffffffffffffffffff16815260200190815260200160002054905060006002600083815260200190815260200160002090508060010160003373ffffffffffffffffffffffffffffffffffffffff1673ffffffffffffffffffffffffffffffffffffffff16815260200190815260200160002060009054906101000a900460ff16610eef57600080fd5b610efd888888888888612209565b5050505050505050565b6000806002600085815260200190815260200160002090508060030160008473ffffffffffffffffffffffffffffffffffffffff1673ffffffffffffffffffffffffffffffffffffffff16815260200190815260200160002060009054906101000a900460ff1691505092915050565b600060026000838152602001908152602001600020905060018160000160003373ffffffffffffffffffffffffffffffffffffffff1673ffffffffffffffffffffffffffffffffffffffff16815260200190815260200160002060006101000a81548160ff02191690831515021790555060008160020160003373ffffffffffffffffffffffffffffffffffffffff1673ffffffffffffffffffffffffffffffffffffffff16815260200190815260200160002060006101000a81548160ff0219169083151502179055505050565b6000806002600084815260200190815260200160002090508060030160003373ffffffffffffffffffffffffffffffffffffffff1673ffffffffffffffffffffffffffffffffffffffff16815260200190815260200160002060009054906101000a900460ff16915050919050565b606060006002600084815260200190815260200160002090508060040180548060200260200160405190810160405280929190818152602001828054801561115257602002820191906000526020600020905b8160009054906101000a900473ffffffffffffffffffffffffffffffffffffffff1673ffffffffffffffffffffffffffffffffffffffff1681526020019060010190808311611108575b5050505050915050919050565b6000806002600085815260200190815260200160002090508060010160008473ffffffffffffffffffffffffffffffffffffffff1673ffffffffffffffffffffffffffffffffffffffff16815260200190815260200160002060009054906101000a900460ff1691505092915050565b6000806002600084815260200190815260200160002090508060000160003373ffffffffffffffffffffffffffffffffffffffff1673ffffffffffffffffffffffffffffffffffffffff16815260200190815260200160002060009054906101000a900460ff16915050919050565b6000600360003373ffffffffffffffffffffffffffffffffffffffff1673ffffffffffffffffffffffffffffffffffffffff16815260200190815260200160002060009054906101000a900460ff16905090565b61129a614123565b90565b60006112a96001613f95565b9050611321336040518060400160405280600b81526020017f20706f7374656420772f20000000000000000000000000000000000000000000815250836040518060400160405280600781526020017f2064617461732000000000000000000000000000000000000000000000000000815250613fa3565b611361886040518060400160405280600181526020017f200000000000000000000000000000000000000000000000000000000000000081525089614045565b6113a1866040518060400160405280600181526020017f200000000000000000000000000000000000000000000000000000000000000081525087614045565b6113aa84613efc565b6113b383613efc565b6113bc82613efc565b6040518061014001604052808281526020013373ffffffffffffffffffffffffffffffffffffffff16815260200189815260200188815260200187815260200186815260200185815260200184815260200183815260200142815250600660003373ffffffffffffffffffffffffffffffffffffffff1673ffffffffffffffffffffffffffffffffffffffff1681526020019081526020016000206000820151816000015560208201518160010160006101000a81548173ffffffffffffffffffffffffffffffffffffffff021916908373ffffffffffffffffffffffffffffffffffffffff16021790555060408201518160020190805190602001906114c49291906141e7565b5060608201518160030190805190602001906114e19291906141e7565b5060808201518160040190805190602001906114fe9291906141e7565b5060a082015181600501908051906020019061151b9291906141e7565b5060c08201518160060190805190602001906115389291906141e7565b5060e08201518160070190805190602001906115559291906141e7565b506101008201518160080190805190602001906115739291906141e7565b5061012082015181600901559050506001600760003373ffffffffffffffffffffffffffffffffffffffff1673ffffffffffffffffffffffffffffffffffffffff16815260200190815260200160002060006101000a81548160ff02191690831515021790555080600860003373ffffffffffffffffffffffffffffffffffffffff1673ffffffffffffffffffffffffffffffffffffffff168152602001908152602001600020819055503373ffffffffffffffffffffffffffffffffffffffff167f513a76dc8ebc81ee52a7aa899c1df88a2fc8b1f85826c0451d38fc2303bb215c828a8a8a8a8a8a8a4260405161167499989796959493929190614ed1565b60405180910390a261168660016140e4565b5050505050505050565b600060026000848152602001908152602001600020905060018160010160008473ffffffffffffffffffffffffffffffffffffffff1673ffffffffffffffffffffffffffffffffffffffff16815260200190815260200160002060006101000a81548160ff02191690831515021790555060008160030160008473ffffffffffffffffffffffffffffffffffffffff1673ffffffffffffffffffffffffffffffffffffffff16815260200190815260200160002060006101000a81548160ff021916908315150217905550505050565b611768614123565b600760003373ffffffffffffffffffffffffffffffffffffffff1673ffffffffffffffffffffffffffffffffffffffff16815260200190815260200160002060009054906101000a900460ff166117be57600080fd5b6000600460008473ffffffffffffffffffffffffffffffffffffffff1673ffffffffffffffffffffffffffffffffffffffff16815260200190815260200160002054905060006002600083815260200190815260200160002090508060000160003373ffffffffffffffffffffffffffffffffffffffff1673ffffffffffffffffffffffffffffffffffffffff16815260200190815260200160002060009054906101000a900460ff1661187157600080fd5b600560008573ffffffffffffffffffffffffffffffffffffffff1673ffffffffffffffffffffffffffffffffffffffff16815260200190815260200160002060405180610100016040529081600082015481526020016001820160009054906101000a900473ffffffffffffffffffffffffffffffffffffffff1673ffffffffffffffffffffffffffffffffffffffff1673ffffffffffffffffffffffffffffffffffffffff16815260200160028201805461192c90614e55565b80601f016020809104026020016040519081016040528092919081815260200182805461195890614e55565b80156119a55780601f1061197a576101008083540402835291602001916119a5565b820191906000526020600020905b81548152906001019060200180831161198857829003601f168201915b505050505081526020016003820180546119be90614e55565b80601f01602080910402602001604051908101604052809291908181526020018280546119ea90614e55565b8015611a375780601f10611a0c57610100808354040283529160200191611a37565b820191906000526020600020905b815481529060010190602001808311611a1a57829003601f168201915b50505050508152602001600482018054611a5090614e55565b80601f0160208091040260200160405190810160405280929190818152602001828054611a7c90614e55565b8015611ac95780601f10611a9e57610100808354040283529160200191611ac9565b820191906000526020600020905b815481529060010190602001808311611aac57829003601f168201915b50505050508152602001600582018054611ae290614e55565b80601f0160208091040260200160405190810160405280929190818152602001828054611b0e90614e55565b8015611b5b5780601f10611b3057610100808354040283529160200191611b5b565b820191906000526020600020905b815481529060010190602001808311611b3e57829003601f168201915b50505050508152602001600682018054611b7490614e55565b80601f0160208091040260200160405190810160405280929190818152602001828054611ba090614e55565b8015611bed5780601f10611bc257610100808354040283529160200191611bed565b820191906000526020600020905b815481529060010190602001808311611bd057829003601f168201915b5050505050815260200160078201548152505092505050919050565b600060026000838152602001908152602001600020905060018160010160003373ffffffffffffffffffffffffffffffffffffffff1673ffffffffffffffffffffffffffffffffffffffff16815260200190815260200160002060006101000a81548160ff02191690831515021790555060008160030160003373ffffffffffffffffffffffffffffffffffffffff1673ffffffffffffffffffffffffffffffffffffffff16815260200190815260200160002060006101000a81548160ff0219169083151502179055505050565b611ce061417e565b600660008373ffffffffffffffffffffffffffffffffffffffff1673ffffffffffffffffffffffffffffffffffffffff16815260200190815260200160002060405180610140016040529081600082015481526020016001820160009054906101000a900473ffffffffffffffffffffffffffffffffffffffff1673ffffffffffffffffffffffffffffffffffffffff1673ffffffffffffffffffffffffffffffffffffffff168152602001600282018054611d9b90614e55565b80601f0160208091040260200160405190810160405280929190818152602001828054611dc790614e55565b8015611e145780601f10611de957610100808354040283529160200191611e14565b820191906000526020600020905b815481529060010190602001808311611df757829003601f168201915b50505050508152602001600382018054611e2d90614e55565b80601f0160208091040260200160405190810160405280929190818152602001828054611e5990614e55565b8015611ea65780601f10611e7b57610100808354040283529160200191611ea6565b820191906000526020600020905b815481529060010190602001808311611e8957829003601f168201915b50505050508152602001600482018054611ebf90614e55565b80601f0160208091040260200160405190810160405280929190818152602001828054611eeb90614e55565b8015611f385780601f10611f0d57610100808354040283529160200191611f38565b820191906000526020600020905b815481529060010190602001808311611f1b57829003601f168201915b50505050508152602001600582018054611f5190614e55565b80601f0160208091040260200160405190810160405280929190818152602001828054611f7d90614e55565b8015611fca5780601f10611f9f57610100808354040283529160200191611fca565b820191906000526020600020905b815481529060010190602001808311611fad57829003601f168201915b50505050508152602001600682018054611fe390614e55565b80601f016020809104026020016040519081016040528092919081815260200182805461200f90614e55565b801561205c5780601f106120315761010080835404028352916020019161205c565b820191906000526020600020905b81548152906001019060200180831161203f57829003601f168201915b5050505050815260200160078201805461207590614e55565b80601f01602080910402602001604051908101604052809291908181526020018280546120a190614e55565b80156120ee5780601f106120c3576101008083540402835291602001916120ee565b820191906000526020600020905b8154815290600101906020018083116120d157829003601f168201915b5050505050815260200160088201805461210790614e55565b80601f016020809104026020016040519081016040528092919081815260200182805461213390614e55565b80156121805780601f1061215557610100808354040283529160200191612180565b820191906000526020600020905b81548152906001019060200180831161216357829003601f168201915b505050505081526020016009820154815250509050919050565b6000806002600084815260200190815260200160002090508060020160003373ffffffffffffffffffffffffffffffffffffffff1673ffffffffffffffffffffffffffffffffffffffff16815260200190815260200160002060009054906101000a900460ff16915050919050565b6000600560008873ffffffffffffffffffffffffffffffffffffffff1673ffffffffffffffffffffffffffffffffffffffff1681526020019081526020016000206000015490506122c6336040518060400160405280600b81526020017f20706f7374656420772f20000000000000000000000000000000000000000000815250836040518060400160405280600781526020017f2064617461732000000000000000000000000000000000000000000000000000815250613fa3565b612306866040518060400160405280600181526020017f200000000000000000000000000000000000000000000000000000000000000081525087614045565b612346846040518060400160405280600181526020017f200000000000000000000000000000000000000000000000000000000000000081525085614045565b61234f82613efc565b85600560008973ffffffffffffffffffffffffffffffffffffffff1673ffffffffffffffffffffffffffffffffffffffff16815260200190815260200160002060020190805190602001906123a59291906141e7565b5084600560008973ffffffffffffffffffffffffffffffffffffffff1673ffffffffffffffffffffffffffffffffffffffff16815260200190815260200160002060030190805190602001906123fc9291906141e7565b5083600560008973ffffffffffffffffffffffffffffffffffffffff1673ffffffffffffffffffffffffffffffffffffffff16815260200190815260200160002060040190805190602001906124539291906141e7565b5082600560008973ffffffffffffffffffffffffffffffffffffffff1673ffffffffffffffffffffffffffffffffffffffff16815260200190815260200160002060050190805190602001906124aa9291906141e7565b5081600560008973ffffffffffffffffffffffffffffffffffffffff1673ffffffffffffffffffffffffffffffffffffffff16815260200190815260200160002060060190805190602001906125019291906141e7565b5042600560008973ffffffffffffffffffffffffffffffffffffffff1673ffffffffffffffffffffffffffffffffffffffff168152602001908152602001600020600701819055508673ffffffffffffffffffffffffffffffffffffffff167f555afce8e2c168dc318c2f1bd476369505c34f71cbda599ae336fe9f65bfd05f8288888888884260405161259b9796959493929190614f8f565b60405180910390a250505050505050565b6000806002600084815260200190815260200160002090508060010160003373ffffffffffffffffffffffffffffffffffffffff1673ffffffffffffffffffffffffffffffffffffffff16815260200190815260200160002060009054906101000a900460ff16915050919050565b600760003373ffffffffffffffffffffffffffffffffffffffff1673ffffffffffffffffffffffffffffffffffffffff16815260200190815260200160002060009054906101000a900460ff1661267157600080fd5b61268186868686868660016128fe565b505050505050565b600060026000838152602001908152602001600020905060008160000160003373ffffffffffffffffffffffffffffffffffffffff1673ffffffffffffffffffffffffffffffffffffffff16815260200190815260200160002060006101000a81548160ff0219169083151502179055505050565b6000806002600085815260200190815260200160002090508060020160008473ffffffffffffffffffffffffffffffffffffffff1673ffffffffffffffffffffffffffffffffffffffff16815260200190815260200160002060009054906101000a900460ff1691505092915050565b600060026000848152602001908152602001600020905060008160010160008473ffffffffffffffffffffffffffffffffffffffff1673ffffffffffffffffffffffffffffffffffffffff16815260200190815260200160002060006101000a81548160ff021916908315150217905550505050565b6000806002600085815260200190815260200160002090508060000160008473ffffffffffffffffffffffffffffffffffffffff1673ffffffffffffffffffffffffffffffffffffffff16815260200190815260200160002060009054906101000a900460ff1691505092915050565b60606000600260008481526020019081526020016000209050806005018054806020026020016040519081016040528092919081815260200182805480156128f157602002820191906000526020600020905b8160009054906101000a900473ffffffffffffffffffffffffffffffffffffffff1673ffffffffffffffffffffffffffffffffffffffff16815260200190600101908083116128a7575b5050505050915050919050565b600061290a6000613f95565b9050612982336040518060400160405280600b81526020017f20706f7374656420772f20000000000000000000000000000000000000000000815250836040518060400160405280600781526020017f2064617461732000000000000000000000000000000000000000000000000000815250613fa3565b6129c2876040518060400160405280600181526020017f200000000000000000000000000000000000000000000000000000000000000081525088614045565b612a02856040518060400160405280600181526020017f200000000000000000000000000000000000000000000000000000000000000081525086614045565b612a0b83613efc565b6040518061010001604052808281526020018973ffffffffffffffffffffffffffffffffffffffff16815260200188815260200187815260200186815260200185815260200184815260200142815250600560008a73ffffffffffffffffffffffffffffffffffffffff1673ffffffffffffffffffffffffffffffffffffffff1681526020019081526020016000206000820151816000015560208201518160010160006101000a81548173ffffffffffffffffffffffffffffffffffffffff021916908373ffffffffffffffffffffffffffffffffffffffff1602179055506040820151816002019080519060200190612b079291906141e7565b506060820151816003019080519060200190612b249291906141e7565b506080820151816004019080519060200190612b419291906141e7565b5060a0820151816005019080519060200190612b5e9291906141e7565b5060c0820151816006019080519060200190612b7b9291906141e7565b5060e08201518160070155905050600060026000838152602001908152602001600020905060018160000160008b73ffffffffffffffffffffffffffffffffffffffff1673ffffffffffffffffffffffffffffffffffffffff16815260200190815260200160002060006101000a81548160ff02191690831515021790555060018160010160008b73ffffffffffffffffffffffffffffffffffffffff1673ffffffffffffffffffffffffffffffffffffffff16815260200190815260200160002060006101000a81548160ff0219169083151502179055508215612d0f5760018160000160003373ffffffffffffffffffffffffffffffffffffffff1673ffffffffffffffffffffffffffffffffffffffff16815260200190815260200160002060006101000a81548160ff02191690831515021790555060018160010160003373ffffffffffffffffffffffffffffffffffffffff1673ffffffffffffffffffffffffffffffffffffffff16815260200190815260200160002060006101000a81548160ff0219169083151502179055505b6001600360008b73ffffffffffffffffffffffffffffffffffffffff1673ffffffffffffffffffffffffffffffffffffffff16815260200190815260200160002060006101000a81548160ff02191690831515021790555081600460008b73ffffffffffffffffffffffffffffffffffffffff1673ffffffffffffffffffffffffffffffffffffffff168152602001908152602001600020819055508873ffffffffffffffffffffffffffffffffffffffff167f555afce8e2c168dc318c2f1bd476369505c34f71cbda599ae336fe9f65bfd05f838a8a8a8a8a42604051612dfd9796959493929190614f8f565b60405180910390a2612e0f60006140e4565b505050505050505050565b6000600360008373ffffffffffffffffffffffffffffffffffffffff1673ffffffffffffffffffffffffffffffffffffffff16815260200190815260200160002060009054906101000a900460ff16612e7257600080fd5b600760003373ffffffffffffffffffffffffffffffffffffffff1673ffffffffffffffffffffffffffffffffffffffff16815260200190815260200160002060009054906101000a900460ff16612ec857600080fd5b600460008373ffffffffffffffffffffffffffffffffffffffff1673ffffffffffffffffffffffffffffffffffffffff168152602001908152602001600020549050919050565b600060026000848152602001908152602001600020905060018160000160008473ffffffffffffffffffffffffffffffffffffffff1673ffffffffffffffffffffffffffffffffffffffff16815260200190815260200160002060006101000a81548160ff02191690831515021790555060008160020160008473ffffffffffffffffffffffffffffffffffffffff1673ffffffffffffffffffffffffffffffffffffffff16815260200190815260200160002060006101000a81548160ff021916908315150217905550505050565b6000600360003373ffffffffffffffffffffffffffffffffffffffff1673ffffffffffffffffffffffffffffffffffffffff16815260200190815260200160002060009054906101000a900460ff1661303757600080fd5b600460003373ffffffffffffffffffffffffffffffffffffffff1673ffffffffffffffffffffffffffffffffffffffff16815260200190815260200160002054905090565b600660003373ffffffffffffffffffffffffffffffffffffffff1673ffffffffffffffffffffffffffffffffffffffff16815260200190815260200160002060010160009054906101000a900473ffffffffffffffffffffffffffffffffffffffff1673ffffffffffffffffffffffffffffffffffffffff163373ffffffffffffffffffffffffffffffffffffffff161461311657600080fd5b6000600660003373ffffffffffffffffffffffffffffffffffffffff1673ffffffffffffffffffffffffffffffffffffffff1681526020019081526020016000206000015490506131d3336040518060400160405280600b81526020017f20706f7374656420772f20000000000000000000000000000000000000000000815250836040518060400160405280600781526020017f2064617461732000000000000000000000000000000000000000000000000000815250613fa3565b613213886040518060400160405280600181526020017f200000000000000000000000000000000000000000000000000000000000000081525089614045565b613253866040518060400160405280600181526020017f200000000000000000000000000000000000000000000000000000000000000081525087614045565b61325c84613efc565b61326583613efc565b61326e82613efc565b87600660003373ffffffffffffffffffffffffffffffffffffffff1673ffffffffffffffffffffffffffffffffffffffff16815260200190815260200160002060020190805190602001906132c49291906141e7565b5086600660003373ffffffffffffffffffffffffffffffffffffffff1673ffffffffffffffffffffffffffffffffffffffff168152602001908152602001600020600301908051906020019061331b9291906141e7565b5085600660003373ffffffffffffffffffffffffffffffffffffffff1673ffffffffffffffffffffffffffffffffffffffff16815260200190815260200160002060040190805190602001906133729291906141e7565b5084600660003373ffffffffffffffffffffffffffffffffffffffff1673ffffffffffffffffffffffffffffffffffffffff16815260200190815260200160002060050190805190602001906133c99291906141e7565b5083600660003373ffffffffffffffffffffffffffffffffffffffff1673ffffffffffffffffffffffffffffffffffffffff16815260200190815260200160002060060190805190602001906134209291906141e7565b5082600660003373ffffffffffffffffffffffffffffffffffffffff1673ffffffffffffffffffffffffffffffffffffffff16815260200190815260200160002060070190805190602001906134779291906141e7565b5081600660003373ffffffffffffffffffffffffffffffffffffffff1673ffffffffffffffffffffffffffffffffffffffff16815260200190815260200160002060080190805190602001906134ce9291906141e7565b5042600660003373ffffffffffffffffffffffffffffffffffffffff1673ffffffffffffffffffffffffffffffffffffffff168152602001908152602001600020600901819055503373ffffffffffffffffffffffffffffffffffffffff167f513a76dc8ebc81ee52a7aa899c1df88a2fc8b1f85826c0451d38fc2303bb215c828a8a8a8a8a8a8a4260405161356c99989796959493929190614ed1565b60405180910390a25050505050505050565b600060026000838152602001908152602001600020905060008160010160003373ffffffffffffffffffffffffffffffffffffffff1673ffffffffffffffffffffffffffffffffffffffff16815260200190815260200160002060006101000a81548160ff02191690831515021790555060018160030160003373ffffffffffffffffffffffffffffffffffffffff1673ffffffffffffffffffffffffffffffffffffffff16815260200190815260200160002060006101000a81548160ff02191690831515021790555080600501339080600181540180825580915050600190039060005260206000200160009091909190916101000a81548173ffffffffffffffffffffffffffffffffffffffff021916908373ffffffffffffffffffffffffffffffffffffffff1602179055505050565b600060026000848152602001908152602001600020905060008160000160008473ffffffffffffffffffffffffffffffffffffffff1673ffffffffffffffffffffffffffffffffffffffff16815260200190815260200160002060006101000a81548160ff021916908315150217905550505050565b613730614123565b600560003373ffffffffffffffffffffffffffffffffffffffff1673ffffffffffffffffffffffffffffffffffffffff16815260200190815260200160002060010160009054906101000a900473ffffffffffffffffffffffffffffffffffffffff1673ffffffffffffffffffffffffffffffffffffffff163373ffffffffffffffffffffffffffffffffffffffff16146137ca57600080fd5b600560003373ffffffffffffffffffffffffffffffffffffffff1673ffffffffffffffffffffffffffffffffffffffff16815260200190815260200160002060405180610100016040529081600082015481526020016001820160009054906101000a900473ffffffffffffffffffffffffffffffffffffffff1673ffffffffffffffffffffffffffffffffffffffff1673ffffffffffffffffffffffffffffffffffffffff16815260200160028201805461388590614e55565b80601f01602080910402602001604051908101604052809291908181526020018280546138b190614e55565b80156138fe5780601f106138d3576101008083540402835291602001916138fe565b820191906000526020600020905b8154815290600101906020018083116138e157829003601f168201915b5050505050815260200160038201805461391790614e55565b80601f016020809104026020016040519081016040528092919081815260200182805461394390614e55565b80156139905780601f1061396557610100808354040283529160200191613990565b820191906000526020600020905b81548152906001019060200180831161397357829003601f168201915b505050505081526020016004820180546139a990614e55565b80601f01602080910402602001604051908101604052809291908181526020018280546139d590614e55565b8015613a225780601f106139f757610100808354040283529160200191613a22565b820191906000526020600020905b815481529060010190602001808311613a0557829003601f168201915b50505050508152602001600582018054613a3b90614e55565b80601f0160208091040260200160405190810160405280929190818152602001828054613a6790614e55565b8015613ab45780601f10613a8957610100808354040283529160200191613ab4565b820191906000526020600020905b815481529060010190602001808311613a9757829003601f168201915b50505050508152602001600682018054613acd90614e55565b80601f0160208091040260200160405190810160405280929190818152602001828054613af990614e55565b8015613b465780601f10613b1b57610100808354040283529160200191613b46565b820191906000526020600020905b815481529060010190602001808311613b2957829003601f168201915b50505050508152602001600782015481525050905090565b600081516040518060600160405280602a8152602001615145602a91395114613b8a5760009050613bf4565b81604051602001613b9b919061505d565b604051602081830303815290604052805190602001206040518060600160405280602a8152602001615145602a9139604051602001613bda919061505d565b604051602081830303815290604052805190602001201490505b919050565b6000600760003373ffffffffffffffffffffffffffffffffffffffff1673ffffffffffffffffffffffffffffffffffffffff16815260200190815260200160002060009054906101000a900460ff16905090565b613c5d33868686868660006128fe565b5050505050565b3373ffffffffffffffffffffffffffffffffffffffff16600560003373ffffffffffffffffffffffffffffffffffffffff1673ffffffffffffffffffffffffffffffffffffffff16815260200190815260200160002060010160009054906101000a900473ffffffffffffffffffffffffffffffffffffffff1673ffffffffffffffffffffffffffffffffffffffff1614613cfe57600080fd5b6000600460003373ffffffffffffffffffffffffffffffffffffffff1673ffffffffffffffffffffffffffffffffffffffff16815260200190815260200160002054905060006002600083815260200190815260200160002090508060010160003373ffffffffffffffffffffffffffffffffffffffff1673ffffffffffffffffffffffffffffffffffffffff16815260200190815260200160002060009054906101000a900460ff16613db157600080fd5b613dbf338888888888612209565b50505050505050565b600060026000838152602001908152602001600020905060008160000160003373ffffffffffffffffffffffffffffffffffffffff1673ffffffffffffffffffffffffffffffffffffffff16815260200190815260200160002060006101000a81548160ff02191690831515021790555060018160020160003373ffffffffffffffffffffffffffffffffffffffff1673ffffffffffffffffffffffffffffffffffffffff16815260200190815260200160002060006101000a81548160ff02191690831515021790555080600401339080600181540180825580915050600190039060005260206000200160009091909190916101000a81548173ffffffffffffffffffffffffffffffffffffffff021916908373ffffffffffffffffffffffffffffffffffffffff1602179055505050565b613f9281604051602401613f109190615074565b6040516020818303038152906040527f41304fac000000000000000000000000000000000000000000000000000000007bffffffffffffffffffffffffffffffffffffffffffffffffffffffff19166020820180517bffffffffffffffffffffffffffffffffffffffffffffffffffffffff83818316178352505050506140fa565b50565b600081600001549050919050565b61403f84848484604051602401613fbd94939291906150a5565b6040516020818303038152906040527f448830a8000000000000000000000000000000000000000000000000000000007bffffffffffffffffffffffffffffffffffffffffffffffffffffffff19166020820180517bffffffffffffffffffffffffffffffffffffffffffffffffffffffff83818316178352505050506140fa565b50505050565b6140df83838360405160240161405d939291906150f8565b6040516020818303038152906040527f2ced7cef000000000000000000000000000000000000000000000000000000007bffffffffffffffffffffffffffffffffffffffffffffffffffffffff19166020820180517bffffffffffffffffffffffffffffffffffffffffffffffffffffffff83818316178352505050506140fa565b505050565b6001816000016000828254019250508190555050565b60008151905060006a636f6e736f6c652e6c6f679050602083016000808483855afa5050505050565b60405180610100016040528060008152602001600073ffffffffffffffffffffffffffffffffffffffff1681526020016060815260200160608152602001606081526020016060815260200160608152602001600081525090565b60405180610140016040528060008152602001600073ffffffffffffffffffffffffffffffffffffffff16815260200160608152602001606081526020016060815260200160608152602001606081526020016060815260200160608152602001600081525090565b8280546141f390614e55565b90600052602060002090601f016020900481019282614215576000855561425c565b82601f1061422e57805160ff191683800117855561425c565b8280016001018555821561425c579182015b8281111561425b578251825591602001919060010190614240565b5b509050614269919061426d565b5090565b5b8082111561428657600081600090555060010161426e565b5090565b6000604051905090565b600080fd5b600080fd5b600073ffffffffffffffffffffffffffffffffffffffff82169050919050565b60006142c98261429e565b9050919050565b6142d9816142be565b81146142e457600080fd5b50565b6000813590506142f6816142d0565b92915050565b60006020828403121561431257614311614294565b5b6000614320848285016142e7565b91505092915050565b6000819050919050565b61433c81614329565b82525050565b61434b816142be565b82525050565b600081519050919050565b600082825260208201905092915050565b60005b8381101561438b578082015181840152602081019050614370565b8381111561439a576000848401525b50505050565b6000601f19601f8301169050919050565b60006143bc82614351565b6143c6818561435c565b93506143d681856020860161436d565b6143df816143a0565b840191505092915050565b6000610100830160008301516144036000860182614333565b5060208301516144166020860182614342565b506040830151848203604086015261442e82826143b1565b9150506060830151848203606086015261444882826143b1565b9150506080830151848203608086015261446282826143b1565b91505060a083015184820360a086015261447c82826143b1565b91505060c083015184820360c086015261449682826143b1565b91505060e08301516144ab60e0860182614333565b508091505092915050565b600060208201905081810360008301526144d081846143ea565b905092915050565b6000610140830160008301516144f16000860182614333565b5060208301516145046020860182614342565b506040830151848203604086015261451c82826143b1565b9150506060830151848203606086015261453682826143b1565b9150506080830151848203608086015261455082826143b1565b91505060a083015184820360a086015261456a82826143b1565b91505060c083015184820360c086015261458482826143b1565b91505060e083015184820360e086015261459e82826143b1565b9150506101008301518482036101008601526145ba82826143b1565b9150506101208301516145d1610120860182614333565b508091505092915050565b600060208201905081810360008301526145f681846144d8565b905092915050565b61460781614329565b811461461257600080fd5b50565b600081359050614624816145fe565b92915050565b6000602082840312156146405761463f614294565b5b600061464e84828501614615565b91505092915050565b60008115159050919050565b61466c81614657565b82525050565b60006020820190506146876000830184614663565b92915050565b600080fd5b600080fd5b7f4e487b7100000000000000000000000000000000000000000000000000000000600052604160045260246000fd5b6146cf826143a0565b810181811067ffffffffffffffff821117156146ee576146ed614697565b5b80604052505050565b600061470161428a565b905061470d82826146c6565b919050565b600067ffffffffffffffff82111561472d5761472c614697565b5b614736826143a0565b9050602081019050919050565b82818337600083830152505050565b600061476561476084614712565b6146f7565b90508281526020810184848401111561478157614780614692565b5b61478c848285614743565b509392505050565b600082601f8301126147a9576147a861468d565b5b81356147b9848260208601614752565b91505092915050565b60008060008060008060c087890312156147df576147de614294565b5b60006147ed89828a016142e7565b965050602087013567ffffffffffffffff81111561480e5761480d614299565b5b61481a89828a01614794565b955050604087013567ffffffffffffffff81111561483b5761483a614299565b5b61484789828a01614794565b945050606087013567ffffffffffffffff81111561486857614867614299565b5b61487489828a01614794565b935050608087013567ffffffffffffffff81111561489557614894614299565b5b6148a189828a01614794565b92505060a087013567ffffffffffffffff8111156148c2576148c1614299565b5b6148ce89828a01614794565b9150509295509295509295565b600080604083850312156148f2576148f1614294565b5b600061490085828601614615565b9250506020614911858286016142e7565b9150509250929050565b600081519050919050565b600082825260208201905092915050565b6000819050602082019050919050565b60006149538383614342565b60208301905092915050565b6000602082019050919050565b60006149778261491b565b6149818185614926565b935061498c83614937565b8060005b838110156149bd5781516149a48882614947565b97506149af8361495f565b925050600181019050614990565b5085935050505092915050565b600060208201905081810360008301526149e4818461496c565b905092915050565b600080600080600080600060e0888a031215614a0b57614a0a614294565b5b600088013567ffffffffffffffff811115614a2957614a28614299565b5b614a358a828b01614794565b975050602088013567ffffffffffffffff811115614a5657614a55614299565b5b614a628a828b01614794565b965050604088013567ffffffffffffffff811115614a8357614a82614299565b5b614a8f8a828b01614794565b955050606088013567ffffffffffffffff811115614ab057614aaf614299565b5b614abc8a828b01614794565b945050608088013567ffffffffffffffff811115614add57614adc614299565b5b614ae98a828b01614794565b93505060a088013567ffffffffffffffff811115614b0a57614b09614299565b5b614b168a828b01614794565b92505060c088013567ffffffffffffffff811115614b3757614b36614299565b5b614b438a828b01614794565b91505092959891949750929550565b614b5b81614657565b8114614b6657600080fd5b50565b600081359050614b7881614b52565b92915050565b600080600080600080600060e0888a031215614b9d57614b9c614294565b5b6000614bab8a828b016142e7565b975050602088013567ffffffffffffffff811115614bcc57614bcb614299565b5b614bd88a828b01614794565b965050604088013567ffffffffffffffff811115614bf957614bf8614299565b5b614c058a828b01614794565b955050606088013567ffffffffffffffff811115614c2657614c25614299565b5b614c328a828b01614794565b945050608088013567ffffffffffffffff811115614c5357614c52614299565b5b614c5f8a828b01614794565b93505060a088013567ffffffffffffffff811115614c8057614c7f614299565b5b614c8c8a828b01614794565b92505060c0614c9d8a828b01614b69565b91505092959891949750929550565b614cb581614329565b82525050565b6000602082019050614cd06000830184614cac565b92915050565b600060208284031215614cec57614ceb614294565b5b600082013567ffffffffffffffff811115614d0a57614d09614299565b5b614d1684828501614794565b91505092915050565b600080600080600060a08688031215614d3b57614d3a614294565b5b600086013567ffffffffffffffff811115614d5957614d58614299565b5b614d6588828901614794565b955050602086013567ffffffffffffffff811115614d8657614d85614299565b5b614d9288828901614794565b945050604086013567ffffffffffffffff811115614db357614db2614299565b5b614dbf88828901614794565b935050606086013567ffffffffffffffff811115614de057614ddf614299565b5b614dec88828901614794565b925050608086013567ffffffffffffffff811115614e0d57614e0c614299565b5b614e1988828901614794565b9150509295509295909350565b7f4e487b7100000000000000000000000000000000000000000000000000000000600052602260045260246000fd5b60006002820490506001821680614e6d57607f821691505b60208210811415614e8157614e80614e26565b5b50919050565b600082825260208201905092915050565b6000614ea382614351565b614ead8185614e87565b9350614ebd81856020860161436d565b614ec6816143a0565b840191505092915050565b600061012082019050614ee7600083018c614cac565b8181036020830152614ef9818b614e98565b90508181036040830152614f0d818a614e98565b90508181036060830152614f218189614e98565b90508181036080830152614f358188614e98565b905081810360a0830152614f498187614e98565b905081810360c0830152614f5d8186614e98565b905081810360e0830152614f718185614e98565b9050614f81610100830184614cac565b9a9950505050505050505050565b600060e082019050614fa4600083018a614cac565b8181036020830152614fb68189614e98565b90508181036040830152614fca8188614e98565b90508181036060830152614fde8187614e98565b90508181036080830152614ff28186614e98565b905081810360a08301526150068185614e98565b905061501560c0830184614cac565b98975050505050505050565b600081905092915050565b600061503782614351565b6150418185615021565b935061505181856020860161436d565b80840191505092915050565b6000615069828461502c565b915081905092915050565b6000602082019050818103600083015261508e8184614e98565b905092915050565b61509f816142be565b82525050565b60006080820190506150ba6000830187615096565b81810360208301526150cc8186614e98565b90506150db6040830185614cac565b81810360608301526150ed8184614e98565b905095945050505050565b600060608201905081810360008301526151128186614e98565b905081810360208301526151268185614e98565b9050818103604083015261513a8184614e98565b905094935050505056fe307836416132613745386334463834393939393930364563326646333732313163324430303538346564a2646970667358221220764a242ca7223a6873b6ea2a4af5d08471ad0561831b753dd945ca6b5c54ffe664736f6c63430008090033",
  "linkReferences": {},
  "deployedLinkReferences": {}
}