{
  "_format": "hh-sol-artifact-1",
  "contractName": "DistributedMedicalDatabase",
  "sourceName": "contracts/DistributedMedicalDatabase.sol",
  "abi": [
    {
      "inputs": [],
      "stateMutability": "nonpayable",
      "type": "constructor"
    },
    {
      "anonymous": false,
      "inputs": [
        {
          "indexed": false,
          "internalType": "uint256",
          "name": "id",
          "type": "uint256"
        },
        {
          "indexed": true,
          "internalType": "address",
          "name": "from",
          "type": "address"
        },
        {
          "indexed": false,
          "internalType": "string",
          "name": "familyname",
          "type": "string"
        },
        {
          "indexed": false,
          "internalType": "string",
          "name": "firstname",
          "type": "string"
        },
        {
          "indexed": false,
          "internalType": "string",
          "name": "furiganafamilyname",
          "type": "string"
        },
        {
          "indexed": false,
          "internalType": "string",
          "name": "furiganafirstname",
          "type": "string"
        },
        {
          "indexed": false,
          "internalType": "string",
          "name": "workplace",
          "type": "string"
        },
        {
          "indexed": false,
          "internalType": "string",
          "name": "occupation",
          "type": "string"
        },
        {
          "indexed": false,
          "internalType": "uint256",
          "name": "lasttimestamp",
          "type": "uint256"
        }
      ],
      "name": "NewBasicInformationAboutHealthcareWorker",
      "type": "event"
    },
    {
      "anonymous": false,
      "inputs": [
        {
          "indexed": false,
          "internalType": "uint256",
          "name": "id",
          "type": "uint256"
        },
        {
          "indexed": true,
          "internalType": "address",
          "name": "from",
          "type": "address"
        },
        {
          "indexed": false,
          "internalType": "string",
          "name": "familyname",
          "type": "string"
        },
        {
          "indexed": false,
          "internalType": "string",
          "name": "firstname",
          "type": "string"
        },
        {
          "indexed": false,
          "internalType": "string",
          "name": "furiganafamilyname",
          "type": "string"
        },
        {
          "indexed": false,
          "internalType": "string",
          "name": "furiganafirstname",
          "type": "string"
        },
        {
          "indexed": false,
          "internalType": "string",
          "name": "bloodtype",
          "type": "string"
        },
        {
          "indexed": false,
          "internalType": "uint256",
          "name": "lasttimestamp",
          "type": "uint256"
        }
      ],
      "name": "NewBasicInformationAboutPatient",
      "type": "event"
    },
    {
      "inputs": [
        {
          "internalType": "uint256",
          "name": "_num",
          "type": "uint256"
        }
      ],
      "name": "apply_for_ones_authority_to_access",
      "outputs": [],
      "stateMutability": "nonpayable",
      "type": "function"
    },
    {
      "inputs": [
        {
          "internalType": "uint256",
          "name": "_num",
          "type": "uint256"
        }
      ],
      "name": "apply_for_ones_authority_to_edit",
      "outputs": [],
      "stateMutability": "nonpayable",
      "type": "function"
    },
    {
      "inputs": [
        {
          "internalType": "uint256",
          "name": "_num",
          "type": "uint256"
        }
      ],
      "name": "check_if_healthcare_worker_has_ones_authority_to_access",
      "outputs": [
        {
          "internalType": "bool",
          "name": "success",
          "type": "bool"
        }
      ],
      "stateMutability": "view",
      "type": "function"
    },
    {
      "inputs": [
        {
          "internalType": "uint256",
          "name": "_num",
          "type": "uint256"
        }
      ],
      "name": "check_if_healthcare_worker_has_ones_authority_to_edit",
      "outputs": [
        {
          "internalType": "bool",
          "name": "success",
          "type": "bool"
        }
      ],
      "stateMutability": "view",
      "type": "function"
    },
    {
      "inputs": [
        {
          "internalType": "uint256",
          "name": "_num",
          "type": "uint256"
        }
      ],
      "name": "check_if_healthcare_worker_is_applying_for_ones_authority_to_access",
      "outputs": [
        {
          "internalType": "bool",
          "name": "success",
          "type": "bool"
        }
      ],
      "stateMutability": "view",
      "type": "function"
    },
    {
      "inputs": [
        {
          "internalType": "uint256",
          "name": "_num",
          "type": "uint256"
        }
      ],
      "name": "check_if_healthcare_worker_is_applying_for_ones_authority_to_edit",
      "outputs": [
        {
          "internalType": "bool",
          "name": "success",
          "type": "bool"
        }
      ],
      "stateMutability": "view",
      "type": "function"
    },
    {
      "inputs": [],
      "name": "check_if_healthcare_worker_registered",
      "outputs": [
        {
          "internalType": "bool",
          "name": "success",
          "type": "bool"
        }
      ],
      "stateMutability": "view",
      "type": "function"
    },
    {
      "inputs": [],
      "name": "check_if_patient_registered",
      "outputs": [
        {
          "internalType": "bool",
          "name": "success",
          "type": "bool"
        }
      ],
      "stateMutability": "view",
      "type": "function"
    },
    {
      "inputs": [
        {
          "internalType": "address",
          "name": "_patient",
          "type": "address"
        }
      ],
      "name": "check_if_patient_registered_by_others",
      "outputs": [
        {
          "internalType": "bool",
          "name": "success",
          "type": "bool"
        }
      ],
      "stateMutability": "view",
      "type": "function"
    },
    {
      "inputs": [
        {
          "internalType": "address",
          "name": "_p",
          "type": "address"
        },
        {
          "internalType": "string",
          "name": "_fa",
          "type": "string"
        },
        {
          "internalType": "string",
          "name": "_fi",
          "type": "string"
        },
        {
          "internalType": "string",
          "name": "_furiganafa",
          "type": "string"
        },
        {
          "internalType": "string",
          "name": "_furiganafi",
          "type": "string"
        },
        {
          "internalType": "string",
          "name": "_b",
          "type": "string"
        }
      ],
      "name": "edit_basic_information_content_for_patient",
      "outputs": [],
      "stateMutability": "nonpayable",
      "type": "function"
    },
    {
      "inputs": [
        {
          "internalType": "string",
          "name": "_familyname",
          "type": "string"
        },
        {
          "internalType": "string",
          "name": "_firstname",
          "type": "string"
        },
        {
          "internalType": "string",
          "name": "_furiganafamilyname",
          "type": "string"
        },
        {
          "internalType": "string",
          "name": "_furiganafirstname",
          "type": "string"
        },
        {
          "internalType": "string",
          "name": "_workplace",
          "type": "string"
        },
        {
          "internalType": "string",
          "name": "_occupation",
          "type": "string"
        }
      ],
      "name": "edit_basic_information_for_healthcareworker",
      "outputs": [],
      "stateMutability": "nonpayable",
      "type": "function"
    },
    {
      "inputs": [
        {
          "internalType": "address",
          "name": "_patientwallet",
          "type": "address"
        },
        {
          "internalType": "string",
          "name": "_familyname",
          "type": "string"
        },
        {
          "internalType": "string",
          "name": "_firstname",
          "type": "string"
        },
        {
          "internalType": "string",
          "name": "_furiganafamilyname",
          "type": "string"
        },
        {
          "internalType": "string",
          "name": "_furiganafirstname",
          "type": "string"
        },
        {
          "internalType": "string",
          "name": "_bloodtype",
          "type": "string"
        }
      ],
      "name": "edit_basic_information_for_patient_by_others",
      "outputs": [],
      "stateMutability": "nonpayable",
      "type": "function"
    },
    {
      "inputs": [
        {
          "internalType": "string",
          "name": "_familyname",
          "type": "string"
        },
        {
          "internalType": "string",
          "name": "_firstname",
          "type": "string"
        },
        {
          "internalType": "string",
          "name": "_furiganafamilyname",
          "type": "string"
        },
        {
          "internalType": "string",
          "name": "_furiganafirstname",
          "type": "string"
        },
        {
          "internalType": "string",
          "name": "_bloodtype",
          "type": "string"
        }
      ],
      "name": "edit_basic_information_for_patient_by_patient",
      "outputs": [],
      "stateMutability": "nonpayable",
      "type": "function"
    },
    {
      "inputs": [
        {
          "internalType": "uint256",
          "name": "_num",
          "type": "uint256"
        }
      ],
      "name": "get_applying_list_to_access",
      "outputs": [
        {
          "internalType": "address[]",
          "name": "list",
          "type": "address[]"
        }
      ],
      "stateMutability": "view",
      "type": "function"
    },
    {
      "inputs": [
        {
          "internalType": "uint256",
          "name": "_num",
          "type": "uint256"
        }
      ],
      "name": "get_applying_list_to_edit",
      "outputs": [
        {
          "internalType": "address[]",
          "name": "list",
          "type": "address[]"
        }
      ],
      "stateMutability": "view",
      "type": "function"
    },
    {
      "inputs": [
        {
          "internalType": "address",
          "name": "_patient",
          "type": "address"
        }
      ],
      "name": "get_basic_information_by_others",
      "outputs": [
        {
          "components": [
            {
              "internalType": "uint256",
              "name": "id",
              "type": "uint256"
            },
            {
              "internalType": "address",
              "name": "patient",
              "type": "address"
            },
            {
              "internalType": "string",
              "name": "familyname",
              "type": "string"
            },
            {
              "internalType": "string",
              "name": "firstname",
              "type": "string"
            },
            {
              "internalType": "string",
              "name": "furiganafamilyname",
              "type": "string"
            },
            {
              "internalType": "string",
              "name": "furiganafirstname",
              "type": "string"
            },
            {
              "internalType": "string",
              "name": "bloodtype",
              "type": "string"
            },
            {
              "internalType": "uint256",
              "name": "lasttimestamp",
              "type": "uint256"
            }
          ],
          "internalType": "struct DistributedMedicalDatabase.BasicInformationAboutPatient",
          "name": "",
          "type": "tuple"
        }
      ],
      "stateMutability": "view",
      "type": "function"
    },
    {
      "inputs": [],
      "name": "get_basic_information_by_patient",
      "outputs": [
        {
          "components": [
            {
              "internalType": "uint256",
              "name": "id",
              "type": "uint256"
            },
            {
              "internalType": "address",
              "name": "patient",
              "type": "address"
            },
            {
              "internalType": "string",
              "name": "familyname",
              "type": "string"
            },
            {
              "internalType": "string",
              "name": "firstname",
              "type": "string"
            },
            {
              "internalType": "string",
              "name": "furiganafamilyname",
              "type": "string"
            },
            {
              "internalType": "string",
              "name": "furiganafirstname",
              "type": "string"
            },
            {
              "internalType": "string",
              "name": "bloodtype",
              "type": "string"
            },
            {
              "internalType": "uint256",
              "name": "lasttimestamp",
              "type": "uint256"
            }
          ],
          "internalType": "struct DistributedMedicalDatabase.BasicInformationAboutPatient",
          "name": "",
          "type": "tuple"
        }
      ],
      "stateMutability": "view",
      "type": "function"
    },
    {
      "inputs": [],
      "name": "get_basic_information_for_healthcare_worker",
      "outputs": [
        {
          "components": [
            {
              "internalType": "uint256",
              "name": "id",
              "type": "uint256"
            },
            {
              "internalType": "address",
              "name": "healthcareworker",
              "type": "address"
            },
            {
              "internalType": "string",
              "name": "familyname",
              "type": "string"
            },
            {
              "internalType": "string",
              "name": "firstname",
              "type": "string"
            },
            {
              "internalType": "string",
              "name": "furiganafamilyname",
              "type": "string"
            },
            {
              "internalType": "string",
              "name": "furiganafirstname",
              "type": "string"
            },
            {
              "internalType": "string",
              "name": "workplace",
              "type": "string"
            },
            {
              "internalType": "string",
              "name": "occupation",
              "type": "string"
            },
            {
              "internalType": "uint256",
              "name": "lasttimestamp",
              "type": "uint256"
            }
          ],
          "internalType": "struct DistributedMedicalDatabase.BasicInformationAboutHealthcareWorker",
          "name": "",
          "type": "tuple"
        }
      ],
      "stateMutability": "view",
      "type": "function"
    },
    {
      "inputs": [
        {
          "internalType": "address",
          "name": "healthcare_worker",
          "type": "address"
        }
      ],
      "name": "get_basic_information_for_healthcare_worker_by_patients",
      "outputs": [
        {
          "components": [
            {
              "internalType": "uint256",
              "name": "id",
              "type": "uint256"
            },
            {
              "internalType": "address",
              "name": "healthcareworker",
              "type": "address"
            },
            {
              "internalType": "string",
              "name": "familyname",
              "type": "string"
            },
            {
              "internalType": "string",
              "name": "firstname",
              "type": "string"
            },
            {
              "internalType": "string",
              "name": "furiganafamilyname",
              "type": "string"
            },
            {
              "internalType": "string",
              "name": "furiganafirstname",
              "type": "string"
            },
            {
              "internalType": "string",
              "name": "workplace",
              "type": "string"
            },
            {
              "internalType": "string",
              "name": "occupation",
              "type": "string"
            },
            {
              "internalType": "uint256",
              "name": "lasttimestamp",
              "type": "uint256"
            }
          ],
          "internalType": "struct DistributedMedicalDatabase.BasicInformationAboutHealthcareWorker",
          "name": "",
          "type": "tuple"
        }
      ],
      "stateMutability": "view",
      "type": "function"
    },
    {
      "inputs": [
        {
          "internalType": "address",
          "name": "_patient",
          "type": "address"
        }
      ],
      "name": "get_data_index_by_others",
      "outputs": [
        {
          "internalType": "uint256",
          "name": "num",
          "type": "uint256"
        }
      ],
      "stateMutability": "view",
      "type": "function"
    },
    {
      "inputs": [],
      "name": "get_data_index_by_patient",
      "outputs": [
        {
          "internalType": "uint256",
          "name": "num",
          "type": "uint256"
        }
      ],
      "stateMutability": "view",
      "type": "function"
    },
    {
      "inputs": [
        {
          "internalType": "address",
          "name": "_patient",
          "type": "address"
        }
      ],
      "name": "get_medical_data_by_others",
      "outputs": [
        {
          "components": [
            {
              "internalType": "uint256",
              "name": "id",
              "type": "uint256"
            },
            {
              "internalType": "address",
              "name": "patient",
              "type": "address"
            },
            {
              "internalType": "string",
              "name": "familyname",
              "type": "string"
            },
            {
              "internalType": "string",
              "name": "firstname",
              "type": "string"
            },
            {
              "internalType": "string",
              "name": "furiganafamilyname",
              "type": "string"
            },
            {
              "internalType": "string",
              "name": "furiganafirstname",
              "type": "string"
            },
            {
              "internalType": "string",
              "name": "bloodtype",
              "type": "string"
            },
            {
              "internalType": "uint256",
              "name": "lasttimestamp",
              "type": "uint256"
            }
          ],
          "internalType": "struct DistributedMedicalDatabase.BasicInformationAboutPatient",
          "name": "",
          "type": "tuple"
        }
      ],
      "stateMutability": "view",
      "type": "function"
    },
    {
      "inputs": [],
      "name": "get_medical_data_by_patient",
      "outputs": [
        {
          "components": [
            {
              "internalType": "uint256",
              "name": "id",
              "type": "uint256"
            },
            {
              "internalType": "address",
              "name": "patient",
              "type": "address"
            },
            {
              "internalType": "string",
              "name": "familyname",
              "type": "string"
            },
            {
              "internalType": "string",
              "name": "firstname",
              "type": "string"
            },
            {
              "internalType": "string",
              "name": "furiganafamilyname",
              "type": "string"
            },
            {
              "internalType": "string",
              "name": "furiganafirstname",
              "type": "string"
            },
            {
              "internalType": "string",
              "name": "bloodtype",
              "type": "string"
            },
            {
              "internalType": "uint256",
              "name": "lasttimestamp",
              "type": "uint256"
            }
          ],
          "internalType": "struct DistributedMedicalDatabase.BasicInformationAboutPatient",
          "name": "",
          "type": "tuple"
        }
      ],
      "stateMutability": "view",
      "type": "function"
    },
    {
      "inputs": [
        {
          "internalType": "uint256",
          "name": "_num",
          "type": "uint256"
        },
        {
          "internalType": "address",
          "name": "_applicant",
          "type": "address"
        }
      ],
      "name": "give_healthcare_worker_authority_to_access",
      "outputs": [],
      "stateMutability": "nonpayable",
      "type": "function"
    },
    {
      "inputs": [
        {
          "internalType": "uint256",
          "name": "_num",
          "type": "uint256"
        },
        {
          "internalType": "address",
          "name": "_applicant",
          "type": "address"
        }
      ],
      "name": "give_healthcare_worker_authority_to_edit",
      "outputs": [],
      "stateMutability": "nonpayable",
      "type": "function"
    },
    {
      "inputs": [
        {
          "internalType": "uint256",
          "name": "_num",
          "type": "uint256"
        }
      ],
      "name": "give_myself_authority_to_access",
      "outputs": [],
      "stateMutability": "nonpayable",
      "type": "function"
    },
    {
      "inputs": [
        {
          "internalType": "uint256",
          "name": "_num",
          "type": "uint256"
        }
      ],
      "name": "give_myself_authority_to_edit",
      "outputs": [],
      "stateMutability": "nonpayable",
      "type": "function"
    },
    {
      "inputs": [
        {
          "internalType": "uint256",
          "name": "_num",
          "type": "uint256"
        },
        {
          "internalType": "address",
          "name": "_hw",
          "type": "address"
        }
      ],
      "name": "patient_check_if_healthcare_worker_has_ones_authority_to_access",
      "outputs": [
        {
          "internalType": "bool",
          "name": "success",
          "type": "bool"
        }
      ],
      "stateMutability": "view",
      "type": "function"
    },
    {
      "inputs": [
        {
          "internalType": "uint256",
          "name": "_num",
          "type": "uint256"
        },
        {
          "internalType": "address",
          "name": "_hw",
          "type": "address"
        }
      ],
      "name": "patient_check_if_healthcare_worker_has_ones_authority_to_edit",
      "outputs": [
        {
          "internalType": "bool",
          "name": "success",
          "type": "bool"
        }
      ],
      "stateMutability": "view",
      "type": "function"
    },
    {
      "inputs": [
        {
          "internalType": "uint256",
          "name": "_num",
          "type": "uint256"
        },
        {
          "internalType": "address",
          "name": "_hw",
          "type": "address"
        }
      ],
      "name": "patient_check_if_healthcare_worker_is_applying_for_ones_authority_to_access",
      "outputs": [
        {
          "internalType": "bool",
          "name": "success",
          "type": "bool"
        }
      ],
      "stateMutability": "view",
      "type": "function"
    },
    {
      "inputs": [
        {
          "internalType": "uint256",
          "name": "_num",
          "type": "uint256"
        },
        {
          "internalType": "address",
          "name": "_hw",
          "type": "address"
        }
      ],
      "name": "patient_check_if_healthcare_worker_is_applying_for_ones_authority_to_edit",
      "outputs": [
        {
          "internalType": "bool",
          "name": "success",
          "type": "bool"
        }
      ],
      "stateMutability": "view",
      "type": "function"
    },
    {
      "inputs": [
        {
          "internalType": "address",
          "name": "_p",
          "type": "address"
        },
        {
          "internalType": "string",
          "name": "_fa",
          "type": "string"
        },
        {
          "internalType": "string",
          "name": "_fi",
          "type": "string"
        },
        {
          "internalType": "string",
          "name": "_furiganafa",
          "type": "string"
        },
        {
          "internalType": "string",
          "name": "_furiganafi",
          "type": "string"
        },
        {
          "internalType": "string",
          "name": "_b",
          "type": "string"
        },
        {
          "internalType": "bool",
          "name": "_isOthers",
          "type": "bool"
        }
      ],
      "name": "register_basic_information_content_for_patient",
      "outputs": [],
      "stateMutability": "nonpayable",
      "type": "function"
    },
    {
      "inputs": [
        {
          "internalType": "string",
          "name": "_familyname",
          "type": "string"
        },
        {
          "internalType": "string",
          "name": "_firstname",
          "type": "string"
        },
        {
          "internalType": "string",
          "name": "_furiganafamilyname",
          "type": "string"
        },
        {
          "internalType": "string",
          "name": "_furiganafirstname",
          "type": "string"
        },
        {
          "internalType": "string",
          "name": "_workplace",
          "type": "string"
        },
        {
          "internalType": "string",
          "name": "_occupation",
          "type": "string"
        }
      ],
      "name": "register_basic_information_for_healthcareworker",
      "outputs": [],
      "stateMutability": "nonpayable",
      "type": "function"
    },
    {
      "inputs": [
        {
          "internalType": "address",
          "name": "_patientwallet",
          "type": "address"
        },
        {
          "internalType": "string",
          "name": "_familyname",
          "type": "string"
        },
        {
          "internalType": "string",
          "name": "_firstname",
          "type": "string"
        },
        {
          "internalType": "string",
          "name": "_furiganafamilyname",
          "type": "string"
        },
        {
          "internalType": "string",
          "name": "_furiganafirstname",
          "type": "string"
        },
        {
          "internalType": "string",
          "name": "_bloodtype",
          "type": "string"
        }
      ],
      "name": "register_basic_information_for_patient_by_others",
      "outputs": [],
      "stateMutability": "nonpayable",
      "type": "function"
    },
    {
      "inputs": [
        {
          "internalType": "string",
          "name": "_familyname",
          "type": "string"
        },
        {
          "internalType": "string",
          "name": "_firstname",
          "type": "string"
        },
        {
          "internalType": "string",
          "name": "_furiganafamilyname",
          "type": "string"
        },
        {
          "internalType": "string",
          "name": "_furiganafirstname",
          "type": "string"
        },
        {
          "internalType": "string",
          "name": "_bloodtype",
          "type": "string"
        }
      ],
      "name": "register_basic_information_for_patient_by_patient",
      "outputs": [],
      "stateMutability": "nonpayable",
      "type": "function"
    },
    {
      "inputs": [
        {
          "internalType": "uint256",
          "name": "_num",
          "type": "uint256"
        },
        {
          "internalType": "address",
          "name": "_applicant",
          "type": "address"
        }
      ],
      "name": "usurp_healthcare_worker_ones_authority_to_access",
      "outputs": [],
      "stateMutability": "nonpayable",
      "type": "function"
    },
    {
      "inputs": [
        {
          "internalType": "uint256",
          "name": "_num",
          "type": "uint256"
        },
        {
          "internalType": "address",
          "name": "_applicant",
          "type": "address"
        }
      ],
      "name": "usurp_healthcare_worker_ones_authority_to_edit",
      "outputs": [],
      "stateMutability": "nonpayable",
      "type": "function"
    },
    {
      "inputs": [
        {
          "internalType": "uint256",
          "name": "_num",
          "type": "uint256"
        }
      ],
      "name": "usurp_myself_ones_authority_to_access",
      "outputs": [],
      "stateMutability": "nonpayable",
      "type": "function"
    },
    {
      "inputs": [
        {
          "internalType": "uint256",
          "name": "_num",
          "type": "uint256"
        }
      ],
      "name": "usurp_myself_ones_authority_to_edit",
      "outputs": [],
      "stateMutability": "nonpayable",
      "type": "function"
    },
    {
      "inputs": [
        {
          "internalType": "string",
          "name": "_pass",
          "type": "string"
        }
      ],
      "name": "verify_password",
      "outputs": [
        {
          "internalType": "bool",
          "name": "success",
          "type": "bool"
        }
      ],
      "stateMutability": "pure",
      "type": "function"
    }
  ],
  "bytecode": "0x60806040523480156200001157600080fd5b506200005d6040518060400160405280602081526020017f48657265206973206d7920666972737420736d61727420636f6e7472616374218152506200006360201b62003d451760201c565b620001f7565b62000103816040516024016200007a9190620001d3565b6040516020818303038152906040527f41304fac000000000000000000000000000000000000000000000000000000007bffffffffffffffffffffffffffffffffffffffffffffffffffffffff19166020820180517bffffffffffffffffffffffffffffffffffffffffffffffffffffffff83818316178352505050506200010660201b60201c565b50565b60008151905060006a636f6e736f6c652e6c6f679050602083016000808483855afa5050505050565b600081519050919050565b600082825260208201905092915050565b60005b838110156200016b5780820151818401526020810190506200014e565b838111156200017b576000848401525b50505050565b6000601f19601f8301169050919050565b60006200019f826200012f565b620001ab81856200013a565b9350620001bd8185602086016200014b565b620001c88162000181565b840191505092915050565b60006020820190508181036000830152620001ef818462000192565b905092915050565b614f8380620002076000396000f3fe608060405234801561001057600080fd5b50600436106102475760003560e01c8063969bc9261161013b578063b98341b2116100b8578063f5d84cb31161007c578063f5d84cb314610756578063f9ec9f7014610786578063fa2ca3db146107a4578063fb9c6d04146107c0578063fe009e63146107dc57610247565b8063b98341b2146106c6578063d09535a6146106e2578063e38a765314610700578063eddeabd21461071c578063f444218b1461073857610247565b8063a6bdf5f2116100ff578063a6bdf5f2146105fe578063aeaca6c51461061a578063b3f38f181461064a578063b8e9848b1461067a578063b90f78b51461069657610247565b8063969bc9261461054a578063996bed7b146105665780639a62a0db146105965780639f6bbc5c146105b2578063a58d0520146105ce57610247565b80633f5e1ed4116101c957806355fff1d31161018d57806355fff1d31461048257806362a012fa146104b2578063664e1f2f146104ce578063822143a1146104fe57806389e7ee561461052e57610247565b80633f5e1ed4146103ca57806346c92fd7146103fa5780634caa63661461042a5780634e095f9c1461044857806352d738611461046657610247565b80631dfec72b116102105780631dfec72b146103025780632945d5f21461031e5780632ba8e21f1461034e5780632e79a8dc1461036a578063339cbb641461039a57610247565b8062359a4b1461024c57806310bb2a6a1461027c5780631100c99a1461029a578063149f9366146102b65780631d3fe6f3146102e6575b600080fd5b6102666004803603810190610261919061413e565b6107f8565b60405161027391906142f8565b60405180910390f35b610284610805565b6040516102919190614402565b60405180910390f35b6102b460048036038101906102af9190614450565b610c89565b005b6102d060048036038101906102cb919061413e565b610cfe565b6040516102dd9190614498565b60405180910390f35b61030060048036038101906102fb91906145e8565b610d54565b005b61031c60048036038101906103179190614701565b610e75565b005b61033860048036038101906103339190614836565b611314565b6040516103459190614498565b60405180910390f35b61036860048036038101906103639190614450565b611384565b005b610384600480360381019061037f9190614450565b611453565b6040516103919190614498565b60405180910390f35b6103b460048036038101906103af9190614450565b6114c2565b6040516103c19190614925565b60405180910390f35b6103e460048036038101906103df9190614836565b61156c565b6040516103f19190614498565b60405180910390f35b610414600480360381019061040f9190614450565b6115dc565b6040516104219190614498565b60405180910390f35b61043261164b565b60405161043f9190614498565b60405180910390f35b61045061169f565b60405161045d91906142f8565b60405180910390f35b610480600480360381019061047b9190614836565b6116aa565b005b61049c6004803603810190610497919061413e565b61177a565b6040516104a991906142f8565b60405180910390f35b6104cc60048036038101906104c79190614450565b611c23565b005b6104e860048036038101906104e3919061413e565b611cf2565b6040516104f59190614402565b60405180910390f35b61051860048036038101906105139190614450565b612122565b6040516105259190614498565b60405180910390f35b61054860048036038101906105439190614701565b612191565b005b610564600480360381019061055f91906145e8565b612554565b005b610580600480360381019061057b9190614450565b6128f7565b60405161058d9190614498565b60405180910390f35b6105b060048036038101906105ab91906145e8565b612966565b005b6105cc60048036038101906105c79190614450565b6129d4565b005b6105e860048036038101906105e39190614836565b612a49565b6040516105f59190614498565b60405180910390f35b61061860048036038101906106139190614836565b612ab9565b005b610634600480360381019061062f9190614836565b612b2f565b6040516106419190614498565b60405180910390f35b610664600480360381019061065f9190614450565b612b9f565b6040516106719190614925565b60405180910390f35b610694600480360381019061068f9190614973565b612c49565b005b6106b060048036038101906106ab919061413e565b613165565b6040516106bd9190614ab0565b60405180910390f35b6106e060048036038101906106db9190614836565b61325a565b005b6106ea61332a565b6040516106f79190614ab0565b60405180910390f35b61071a60048036038101906107159190614450565b6133c7565b005b61073660048036038101906107319190614836565b6134fb565b005b610740613571565b60405161074d91906142f8565b60405180910390f35b610770600480360381019061076b9190614acb565b6139a7565b60405161077d9190614498565b60405180910390f35b61078e613a42565b60405161079b9190614498565b60405180910390f35b6107be60048036038101906107b99190614b14565b613a96565b005b6107da60048036038101906107d59190614b14565b613aad565b005b6107f660048036038101906107f19190614450565b613c11565b005b610800613f6c565b919050565b61080d613fc7565b600760003373ffffffffffffffffffffffffffffffffffffffff1673ffffffffffffffffffffffffffffffffffffffff16815260200190815260200160002060009054906101000a900460ff1661086357600080fd5b600660003373ffffffffffffffffffffffffffffffffffffffff1673ffffffffffffffffffffffffffffffffffffffff16815260200190815260200160002060405180610120016040529081600082015481526020016001820160009054906101000a900473ffffffffffffffffffffffffffffffffffffffff1673ffffffffffffffffffffffffffffffffffffffff1673ffffffffffffffffffffffffffffffffffffffff16815260200160028201805461091e90614c4a565b80601f016020809104026020016040519081016040528092919081815260200182805461094a90614c4a565b80156109975780601f1061096c57610100808354040283529160200191610997565b820191906000526020600020905b81548152906001019060200180831161097a57829003601f168201915b505050505081526020016003820180546109b090614c4a565b80601f01602080910402602001604051908101604052809291908181526020018280546109dc90614c4a565b8015610a295780601f106109fe57610100808354040283529160200191610a29565b820191906000526020600020905b815481529060010190602001808311610a0c57829003601f168201915b50505050508152602001600482018054610a4290614c4a565b80601f0160208091040260200160405190810160405280929190818152602001828054610a6e90614c4a565b8015610abb5780601f10610a9057610100808354040283529160200191610abb565b820191906000526020600020905b815481529060010190602001808311610a9e57829003601f168201915b50505050508152602001600582018054610ad490614c4a565b80601f0160208091040260200160405190810160405280929190818152602001828054610b0090614c4a565b8015610b4d5780601f10610b2257610100808354040283529160200191610b4d565b820191906000526020600020905b815481529060010190602001808311610b3057829003601f168201915b50505050508152602001600682018054610b6690614c4a565b80601f0160208091040260200160405190810160405280929190818152602001828054610b9290614c4a565b8015610bdf5780601f10610bb457610100808354040283529160200191610bdf565b820191906000526020600020905b815481529060010190602001808311610bc257829003601f168201915b50505050508152602001600782018054610bf890614c4a565b80601f0160208091040260200160405190810160405280929190818152602001828054610c2490614c4a565b8015610c715780601f10610c4657610100808354040283529160200191610c71565b820191906000526020600020905b815481529060010190602001808311610c5457829003601f168201915b50505050508152602001600882015481525050905090565b600060026000838152602001908152602001600020905060008160010160003373ffffffffffffffffffffffffffffffffffffffff1673ffffffffffffffffffffffffffffffffffffffff16815260200190815260200160002060006101000a81548160ff0219169083151502179055505050565b6000600360008373ffffffffffffffffffffffffffffffffffffffff1673ffffffffffffffffffffffffffffffffffffffff16815260200190815260200160002060009054906101000a900460ff169050919050565b600760003373ffffffffffffffffffffffffffffffffffffffff1673ffffffffffffffffffffffffffffffffffffffff16815260200190815260200160002060009054906101000a900460ff16610daa57600080fd5b6000600460008873ffffffffffffffffffffffffffffffffffffffff1673ffffffffffffffffffffffffffffffffffffffff16815260200190815260200160002054905060006002600083815260200190815260200160002090508060010160003373ffffffffffffffffffffffffffffffffffffffff1673ffffffffffffffffffffffffffffffffffffffff16815260200190815260200160002060009054906101000a900460ff16610e5d57600080fd5b610e6b888888888888612554565b5050505050505050565b600660003373ffffffffffffffffffffffffffffffffffffffff1673ffffffffffffffffffffffffffffffffffffffff16815260200190815260200160002060010160009054906101000a900473ffffffffffffffffffffffffffffffffffffffff1673ffffffffffffffffffffffffffffffffffffffff163373ffffffffffffffffffffffffffffffffffffffff1614610f0f57600080fd5b6000600660003373ffffffffffffffffffffffffffffffffffffffff1673ffffffffffffffffffffffffffffffffffffffff168152602001908152602001600020600001549050610fcc336040518060400160405280600b81526020017f20706f7374656420772f20000000000000000000000000000000000000000000815250836040518060400160405280600781526020017f2064617461732000000000000000000000000000000000000000000000000000815250613dde565b61100c876040518060400160405280600181526020017f200000000000000000000000000000000000000000000000000000000000000081525088613e80565b61104c856040518060400160405280600181526020017f200000000000000000000000000000000000000000000000000000000000000081525086613e80565b61105583613d45565b61105e82613d45565b86600660003373ffffffffffffffffffffffffffffffffffffffff1673ffffffffffffffffffffffffffffffffffffffff16815260200190815260200160002060020190805190602001906110b4929190614029565b5085600660003373ffffffffffffffffffffffffffffffffffffffff1673ffffffffffffffffffffffffffffffffffffffff168152602001908152602001600020600301908051906020019061110b929190614029565b5084600660003373ffffffffffffffffffffffffffffffffffffffff1673ffffffffffffffffffffffffffffffffffffffff1681526020019081526020016000206004019080519060200190611162929190614029565b5083600660003373ffffffffffffffffffffffffffffffffffffffff1673ffffffffffffffffffffffffffffffffffffffff16815260200190815260200160002060050190805190602001906111b9929190614029565b5082600660003373ffffffffffffffffffffffffffffffffffffffff1673ffffffffffffffffffffffffffffffffffffffff1681526020019081526020016000206006019080519060200190611210929190614029565b5081600660003373ffffffffffffffffffffffffffffffffffffffff1673ffffffffffffffffffffffffffffffffffffffff1681526020019081526020016000206007019080519060200190611267929190614029565b5042600660003373ffffffffffffffffffffffffffffffffffffffff1673ffffffffffffffffffffffffffffffffffffffff168152602001908152602001600020600801819055503373ffffffffffffffffffffffffffffffffffffffff167f7756c7e99ce889845291fcc9e39c12ff4838733cb1bc4fc8ca2a09d1378222508289898989898942604051611303989796959493929190614cc6565b60405180910390a250505050505050565b6000806002600085815260200190815260200160002090508060030160008473ffffffffffffffffffffffffffffffffffffffff1673ffffffffffffffffffffffffffffffffffffffff16815260200190815260200160002060009054906101000a900460ff1691505092915050565b600060026000838152602001908152602001600020905060018160000160003373ffffffffffffffffffffffffffffffffffffffff1673ffffffffffffffffffffffffffffffffffffffff16815260200190815260200160002060006101000a81548160ff02191690831515021790555060008160020160003373ffffffffffffffffffffffffffffffffffffffff1673ffffffffffffffffffffffffffffffffffffffff16815260200190815260200160002060006101000a81548160ff0219169083151502179055505050565b6000806002600084815260200190815260200160002090508060030160003373ffffffffffffffffffffffffffffffffffffffff1673ffffffffffffffffffffffffffffffffffffffff16815260200190815260200160002060009054906101000a900460ff16915050919050565b606060006002600084815260200190815260200160002090508060040180548060200260200160405190810160405280929190818152602001828054801561155f57602002820191906000526020600020905b8160009054906101000a900473ffffffffffffffffffffffffffffffffffffffff1673ffffffffffffffffffffffffffffffffffffffff1681526020019060010190808311611515575b5050505050915050919050565b6000806002600085815260200190815260200160002090508060010160008473ffffffffffffffffffffffffffffffffffffffff1673ffffffffffffffffffffffffffffffffffffffff16815260200190815260200160002060009054906101000a900460ff1691505092915050565b6000806002600084815260200190815260200160002090508060000160003373ffffffffffffffffffffffffffffffffffffffff1673ffffffffffffffffffffffffffffffffffffffff16815260200190815260200160002060009054906101000a900460ff16915050919050565b6000600360003373ffffffffffffffffffffffffffffffffffffffff1673ffffffffffffffffffffffffffffffffffffffff16815260200190815260200160002060009054906101000a900460ff16905090565b6116a7613f6c565b90565b600060026000848152602001908152602001600020905060018160010160008473ffffffffffffffffffffffffffffffffffffffff1673ffffffffffffffffffffffffffffffffffffffff16815260200190815260200160002060006101000a81548160ff02191690831515021790555060008160030160008473ffffffffffffffffffffffffffffffffffffffff1673ffffffffffffffffffffffffffffffffffffffff16815260200190815260200160002060006101000a81548160ff021916908315150217905550505050565b611782613f6c565b600760003373ffffffffffffffffffffffffffffffffffffffff1673ffffffffffffffffffffffffffffffffffffffff16815260200190815260200160002060009054906101000a900460ff166117d857600080fd5b6000600460008473ffffffffffffffffffffffffffffffffffffffff1673ffffffffffffffffffffffffffffffffffffffff16815260200190815260200160002054905060006002600083815260200190815260200160002090508060000160003373ffffffffffffffffffffffffffffffffffffffff1673ffffffffffffffffffffffffffffffffffffffff16815260200190815260200160002060009054906101000a900460ff1661188b57600080fd5b600560008573ffffffffffffffffffffffffffffffffffffffff1673ffffffffffffffffffffffffffffffffffffffff16815260200190815260200160002060405180610100016040529081600082015481526020016001820160009054906101000a900473ffffffffffffffffffffffffffffffffffffffff1673ffffffffffffffffffffffffffffffffffffffff1673ffffffffffffffffffffffffffffffffffffffff16815260200160028201805461194690614c4a565b80601f016020809104026020016040519081016040528092919081815260200182805461197290614c4a565b80156119bf5780601f10611994576101008083540402835291602001916119bf565b820191906000526020600020905b8154815290600101906020018083116119a257829003601f168201915b505050505081526020016003820180546119d890614c4a565b80601f0160208091040260200160405190810160405280929190818152602001828054611a0490614c4a565b8015611a515780601f10611a2657610100808354040283529160200191611a51565b820191906000526020600020905b815481529060010190602001808311611a3457829003601f168201915b50505050508152602001600482018054611a6a90614c4a565b80601f0160208091040260200160405190810160405280929190818152602001828054611a9690614c4a565b8015611ae35780601f10611ab857610100808354040283529160200191611ae3565b820191906000526020600020905b815481529060010190602001808311611ac657829003601f168201915b50505050508152602001600582018054611afc90614c4a565b80601f0160208091040260200160405190810160405280929190818152602001828054611b2890614c4a565b8015611b755780601f10611b4a57610100808354040283529160200191611b75565b820191906000526020600020905b815481529060010190602001808311611b5857829003601f168201915b50505050508152602001600682018054611b8e90614c4a565b80601f0160208091040260200160405190810160405280929190818152602001828054611bba90614c4a565b8015611c075780601f10611bdc57610100808354040283529160200191611c07565b820191906000526020600020905b815481529060010190602001808311611bea57829003601f168201915b5050505050815260200160078201548152505092505050919050565b600060026000838152602001908152602001600020905060018160010160003373ffffffffffffffffffffffffffffffffffffffff1673ffffffffffffffffffffffffffffffffffffffff16815260200190815260200160002060006101000a81548160ff02191690831515021790555060008160030160003373ffffffffffffffffffffffffffffffffffffffff1673ffffffffffffffffffffffffffffffffffffffff16815260200190815260200160002060006101000a81548160ff0219169083151502179055505050565b611cfa613fc7565b600660008373ffffffffffffffffffffffffffffffffffffffff1673ffffffffffffffffffffffffffffffffffffffff16815260200190815260200160002060405180610120016040529081600082015481526020016001820160009054906101000a900473ffffffffffffffffffffffffffffffffffffffff1673ffffffffffffffffffffffffffffffffffffffff1673ffffffffffffffffffffffffffffffffffffffff168152602001600282018054611db590614c4a565b80601f0160208091040260200160405190810160405280929190818152602001828054611de190614c4a565b8015611e2e5780601f10611e0357610100808354040283529160200191611e2e565b820191906000526020600020905b815481529060010190602001808311611e1157829003601f168201915b50505050508152602001600382018054611e4790614c4a565b80601f0160208091040260200160405190810160405280929190818152602001828054611e7390614c4a565b8015611ec05780601f10611e9557610100808354040283529160200191611ec0565b820191906000526020600020905b815481529060010190602001808311611ea357829003601f168201915b50505050508152602001600482018054611ed990614c4a565b80601f0160208091040260200160405190810160405280929190818152602001828054611f0590614c4a565b8015611f525780601f10611f2757610100808354040283529160200191611f52565b820191906000526020600020905b815481529060010190602001808311611f3557829003601f168201915b50505050508152602001600582018054611f6b90614c4a565b80601f0160208091040260200160405190810160405280929190818152602001828054611f9790614c4a565b8015611fe45780601f10611fb957610100808354040283529160200191611fe4565b820191906000526020600020905b815481529060010190602001808311611fc757829003601f168201915b50505050508152602001600682018054611ffd90614c4a565b80601f016020809104026020016040519081016040528092919081815260200182805461202990614c4a565b80156120765780601f1061204b57610100808354040283529160200191612076565b820191906000526020600020905b81548152906001019060200180831161205957829003601f168201915b5050505050815260200160078201805461208f90614c4a565b80601f01602080910402602001604051908101604052809291908181526020018280546120bb90614c4a565b80156121085780601f106120dd57610100808354040283529160200191612108565b820191906000526020600020905b8154815290600101906020018083116120eb57829003601f168201915b505050505081526020016008820154815250509050919050565b6000806002600084815260200190815260200160002090508060020160003373ffffffffffffffffffffffffffffffffffffffff1673ffffffffffffffffffffffffffffffffffffffff16815260200190815260200160002060009054906101000a900460ff16915050919050565b600061219d6001613f1f565b9050612215336040518060400160405280600b81526020017f20706f7374656420772f20000000000000000000000000000000000000000000815250836040518060400160405280600781526020017f2064617461732000000000000000000000000000000000000000000000000000815250613dde565b612255876040518060400160405280600181526020017f200000000000000000000000000000000000000000000000000000000000000081525088613e80565b612295856040518060400160405280600181526020017f200000000000000000000000000000000000000000000000000000000000000081525086613e80565b61229e83613d45565b6122a782613d45565b6040518061012001604052808281526020013373ffffffffffffffffffffffffffffffffffffffff16815260200188815260200187815260200186815260200185815260200184815260200183815260200142815250600660003373ffffffffffffffffffffffffffffffffffffffff1673ffffffffffffffffffffffffffffffffffffffff1681526020019081526020016000206000820151816000015560208201518160010160006101000a81548173ffffffffffffffffffffffffffffffffffffffff021916908373ffffffffffffffffffffffffffffffffffffffff16021790555060408201518160020190805190602001906123a9929190614029565b5060608201518160030190805190602001906123c6929190614029565b5060808201518160040190805190602001906123e3929190614029565b5060a0820151816005019080519060200190612400929190614029565b5060c082015181600601908051906020019061241d929190614029565b5060e082015181600701908051906020019061243a929190614029565b5061010082015181600801559050506001600760003373ffffffffffffffffffffffffffffffffffffffff1673ffffffffffffffffffffffffffffffffffffffff16815260200190815260200160002060006101000a81548160ff02191690831515021790555080600860003373ffffffffffffffffffffffffffffffffffffffff1673ffffffffffffffffffffffffffffffffffffffff168152602001908152602001600020819055503373ffffffffffffffffffffffffffffffffffffffff167f7756c7e99ce889845291fcc9e39c12ff4838733cb1bc4fc8ca2a09d1378222508289898989898942604051612539989796959493929190614cc6565b60405180910390a261254b6001613f2d565b50505050505050565b6000600560008873ffffffffffffffffffffffffffffffffffffffff1673ffffffffffffffffffffffffffffffffffffffff168152602001908152602001600020600001549050612611336040518060400160405280600b81526020017f20706f7374656420772f20000000000000000000000000000000000000000000815250836040518060400160405280600781526020017f2064617461732000000000000000000000000000000000000000000000000000815250613dde565b612651866040518060400160405280600181526020017f200000000000000000000000000000000000000000000000000000000000000081525087613e80565b612691846040518060400160405280600181526020017f200000000000000000000000000000000000000000000000000000000000000081525085613e80565b61269a82613d45565b85600560008973ffffffffffffffffffffffffffffffffffffffff1673ffffffffffffffffffffffffffffffffffffffff16815260200190815260200160002060020190805190602001906126f0929190614029565b5084600560008973ffffffffffffffffffffffffffffffffffffffff1673ffffffffffffffffffffffffffffffffffffffff1681526020019081526020016000206003019080519060200190612747929190614029565b5083600560008973ffffffffffffffffffffffffffffffffffffffff1673ffffffffffffffffffffffffffffffffffffffff168152602001908152602001600020600401908051906020019061279e929190614029565b5082600560008973ffffffffffffffffffffffffffffffffffffffff1673ffffffffffffffffffffffffffffffffffffffff16815260200190815260200160002060050190805190602001906127f5929190614029565b5081600560008973ffffffffffffffffffffffffffffffffffffffff1673ffffffffffffffffffffffffffffffffffffffff168152602001908152602001600020600601908051906020019061284c929190614029565b5042600560008973ffffffffffffffffffffffffffffffffffffffff1673ffffffffffffffffffffffffffffffffffffffff168152602001908152602001600020600701819055508673ffffffffffffffffffffffffffffffffffffffff167f555afce8e2c168dc318c2f1bd476369505c34f71cbda599ae336fe9f65bfd05f828888888888426040516128e69796959493929190614d6e565b60405180910390a250505050505050565b6000806002600084815260200190815260200160002090508060010160003373ffffffffffffffffffffffffffffffffffffffff1673ffffffffffffffffffffffffffffffffffffffff16815260200190815260200160002060009054906101000a900460ff16915050919050565b600760003373ffffffffffffffffffffffffffffffffffffffff1673ffffffffffffffffffffffffffffffffffffffff16815260200190815260200160002060009054906101000a900460ff166129bc57600080fd5b6129cc8686868686866001612c49565b505050505050565b600060026000838152602001908152602001600020905060008160000160003373ffffffffffffffffffffffffffffffffffffffff1673ffffffffffffffffffffffffffffffffffffffff16815260200190815260200160002060006101000a81548160ff0219169083151502179055505050565b6000806002600085815260200190815260200160002090508060020160008473ffffffffffffffffffffffffffffffffffffffff1673ffffffffffffffffffffffffffffffffffffffff16815260200190815260200160002060009054906101000a900460ff1691505092915050565b600060026000848152602001908152602001600020905060008160010160008473ffffffffffffffffffffffffffffffffffffffff1673ffffffffffffffffffffffffffffffffffffffff16815260200190815260200160002060006101000a81548160ff021916908315150217905550505050565b6000806002600085815260200190815260200160002090508060000160008473ffffffffffffffffffffffffffffffffffffffff1673ffffffffffffffffffffffffffffffffffffffff16815260200190815260200160002060009054906101000a900460ff1691505092915050565b6060600060026000848152602001908152602001600020905080600501805480602002602001604051908101604052809291908181526020018280548015612c3c57602002820191906000526020600020905b8160009054906101000a900473ffffffffffffffffffffffffffffffffffffffff1673ffffffffffffffffffffffffffffffffffffffff1681526020019060010190808311612bf2575b5050505050915050919050565b6000612c556000613f1f565b9050612ccd336040518060400160405280600b81526020017f20706f7374656420772f20000000000000000000000000000000000000000000815250836040518060400160405280600781526020017f2064617461732000000000000000000000000000000000000000000000000000815250613dde565b612d0d876040518060400160405280600181526020017f200000000000000000000000000000000000000000000000000000000000000081525088613e80565b612d4d856040518060400160405280600181526020017f200000000000000000000000000000000000000000000000000000000000000081525086613e80565b612d5683613d45565b6040518061010001604052808281526020018973ffffffffffffffffffffffffffffffffffffffff16815260200188815260200187815260200186815260200185815260200184815260200142815250600560008a73ffffffffffffffffffffffffffffffffffffffff1673ffffffffffffffffffffffffffffffffffffffff1681526020019081526020016000206000820151816000015560208201518160010160006101000a81548173ffffffffffffffffffffffffffffffffffffffff021916908373ffffffffffffffffffffffffffffffffffffffff1602179055506040820151816002019080519060200190612e52929190614029565b506060820151816003019080519060200190612e6f929190614029565b506080820151816004019080519060200190612e8c929190614029565b5060a0820151816005019080519060200190612ea9929190614029565b5060c0820151816006019080519060200190612ec6929190614029565b5060e08201518160070155905050600060026000838152602001908152602001600020905060018160000160008b73ffffffffffffffffffffffffffffffffffffffff1673ffffffffffffffffffffffffffffffffffffffff16815260200190815260200160002060006101000a81548160ff02191690831515021790555060018160010160008b73ffffffffffffffffffffffffffffffffffffffff1673ffffffffffffffffffffffffffffffffffffffff16815260200190815260200160002060006101000a81548160ff021916908315150217905550821561305a5760018160000160003373ffffffffffffffffffffffffffffffffffffffff1673ffffffffffffffffffffffffffffffffffffffff16815260200190815260200160002060006101000a81548160ff02191690831515021790555060018160010160003373ffffffffffffffffffffffffffffffffffffffff1673ffffffffffffffffffffffffffffffffffffffff16815260200190815260200160002060006101000a81548160ff0219169083151502179055505b6001600360008b73ffffffffffffffffffffffffffffffffffffffff1673ffffffffffffffffffffffffffffffffffffffff16815260200190815260200160002060006101000a81548160ff02191690831515021790555081600460008b73ffffffffffffffffffffffffffffffffffffffff1673ffffffffffffffffffffffffffffffffffffffff168152602001908152602001600020819055508873ffffffffffffffffffffffffffffffffffffffff167f555afce8e2c168dc318c2f1bd476369505c34f71cbda599ae336fe9f65bfd05f838a8a8a8a8a426040516131489796959493929190614d6e565b60405180910390a261315a6000613f2d565b505050505050505050565b6000600360008373ffffffffffffffffffffffffffffffffffffffff1673ffffffffffffffffffffffffffffffffffffffff16815260200190815260200160002060009054906101000a900460ff166131bd57600080fd5b600760003373ffffffffffffffffffffffffffffffffffffffff1673ffffffffffffffffffffffffffffffffffffffff16815260200190815260200160002060009054906101000a900460ff1661321357600080fd5b600460008373ffffffffffffffffffffffffffffffffffffffff1673ffffffffffffffffffffffffffffffffffffffff168152602001908152602001600020549050919050565b600060026000848152602001908152602001600020905060018160000160008473ffffffffffffffffffffffffffffffffffffffff1673ffffffffffffffffffffffffffffffffffffffff16815260200190815260200160002060006101000a81548160ff02191690831515021790555060008160020160008473ffffffffffffffffffffffffffffffffffffffff1673ffffffffffffffffffffffffffffffffffffffff16815260200190815260200160002060006101000a81548160ff021916908315150217905550505050565b6000600360003373ffffffffffffffffffffffffffffffffffffffff1673ffffffffffffffffffffffffffffffffffffffff16815260200190815260200160002060009054906101000a900460ff1661338257600080fd5b600460003373ffffffffffffffffffffffffffffffffffffffff1673ffffffffffffffffffffffffffffffffffffffff16815260200190815260200160002054905090565b600060026000838152602001908152602001600020905060008160010160003373ffffffffffffffffffffffffffffffffffffffff1673ffffffffffffffffffffffffffffffffffffffff16815260200190815260200160002060006101000a81548160ff02191690831515021790555060018160030160003373ffffffffffffffffffffffffffffffffffffffff1673ffffffffffffffffffffffffffffffffffffffff16815260200190815260200160002060006101000a81548160ff02191690831515021790555080600501339080600181540180825580915050600190039060005260206000200160009091909190916101000a81548173ffffffffffffffffffffffffffffffffffffffff021916908373ffffffffffffffffffffffffffffffffffffffff1602179055505050565b600060026000848152602001908152602001600020905060008160000160008473ffffffffffffffffffffffffffffffffffffffff1673ffffffffffffffffffffffffffffffffffffffff16815260200190815260200160002060006101000a81548160ff021916908315150217905550505050565b613579613f6c565b600560003373ffffffffffffffffffffffffffffffffffffffff1673ffffffffffffffffffffffffffffffffffffffff16815260200190815260200160002060010160009054906101000a900473ffffffffffffffffffffffffffffffffffffffff1673ffffffffffffffffffffffffffffffffffffffff163373ffffffffffffffffffffffffffffffffffffffff161461361357600080fd5b600560003373ffffffffffffffffffffffffffffffffffffffff1673ffffffffffffffffffffffffffffffffffffffff16815260200190815260200160002060405180610100016040529081600082015481526020016001820160009054906101000a900473ffffffffffffffffffffffffffffffffffffffff1673ffffffffffffffffffffffffffffffffffffffff1673ffffffffffffffffffffffffffffffffffffffff1681526020016002820180546136ce90614c4a565b80601f01602080910402602001604051908101604052809291908181526020018280546136fa90614c4a565b80156137475780601f1061371c57610100808354040283529160200191613747565b820191906000526020600020905b81548152906001019060200180831161372a57829003601f168201915b5050505050815260200160038201805461376090614c4a565b80601f016020809104026020016040519081016040528092919081815260200182805461378c90614c4a565b80156137d95780601f106137ae576101008083540402835291602001916137d9565b820191906000526020600020905b8154815290600101906020018083116137bc57829003601f168201915b505050505081526020016004820180546137f290614c4a565b80601f016020809104026020016040519081016040528092919081815260200182805461381e90614c4a565b801561386b5780601f106138405761010080835404028352916020019161386b565b820191906000526020600020905b81548152906001019060200180831161384e57829003601f168201915b5050505050815260200160058201805461388490614c4a565b80601f01602080910402602001604051908101604052809291908181526020018280546138b090614c4a565b80156138fd5780601f106138d2576101008083540402835291602001916138fd565b820191906000526020600020905b8154815290600101906020018083116138e057829003601f168201915b5050505050815260200160068201805461391690614c4a565b80601f016020809104026020016040519081016040528092919081815260200182805461394290614c4a565b801561398f5780601f106139645761010080835404028352916020019161398f565b820191906000526020600020905b81548152906001019060200180831161397257829003601f168201915b50505050508152602001600782015481525050905090565b600081516040518060600160405280602a8152602001614f24602a913951146139d35760009050613a3d565b816040516020016139e49190614e3c565b604051602081830303815290604052805190602001206040518060600160405280602a8152602001614f24602a9139604051602001613a239190614e3c565b604051602081830303815290604052805190602001201490505b919050565b6000600760003373ffffffffffffffffffffffffffffffffffffffff1673ffffffffffffffffffffffffffffffffffffffff16815260200190815260200160002060009054906101000a900460ff16905090565b613aa63386868686866000612c49565b5050505050565b3373ffffffffffffffffffffffffffffffffffffffff16600560003373ffffffffffffffffffffffffffffffffffffffff1673ffffffffffffffffffffffffffffffffffffffff16815260200190815260200160002060010160009054906101000a900473ffffffffffffffffffffffffffffffffffffffff1673ffffffffffffffffffffffffffffffffffffffff1614613b4757600080fd5b6000600460003373ffffffffffffffffffffffffffffffffffffffff1673ffffffffffffffffffffffffffffffffffffffff16815260200190815260200160002054905060006002600083815260200190815260200160002090508060010160003373ffffffffffffffffffffffffffffffffffffffff1673ffffffffffffffffffffffffffffffffffffffff16815260200190815260200160002060009054906101000a900460ff16613bfa57600080fd5b613c08338888888888612554565b50505050505050565b600060026000838152602001908152602001600020905060008160000160003373ffffffffffffffffffffffffffffffffffffffff1673ffffffffffffffffffffffffffffffffffffffff16815260200190815260200160002060006101000a81548160ff02191690831515021790555060018160020160003373ffffffffffffffffffffffffffffffffffffffff1673ffffffffffffffffffffffffffffffffffffffff16815260200190815260200160002060006101000a81548160ff02191690831515021790555080600401339080600181540180825580915050600190039060005260206000200160009091909190916101000a81548173ffffffffffffffffffffffffffffffffffffffff021916908373ffffffffffffffffffffffffffffffffffffffff1602179055505050565b613ddb81604051602401613d599190614e53565b6040516020818303038152906040527f41304fac000000000000000000000000000000000000000000000000000000007bffffffffffffffffffffffffffffffffffffffffffffffffffffffff19166020820180517bffffffffffffffffffffffffffffffffffffffffffffffffffffffff8381831617835250505050613f43565b50565b613e7a84848484604051602401613df89493929190614e84565b6040516020818303038152906040527f448830a8000000000000000000000000000000000000000000000000000000007bffffffffffffffffffffffffffffffffffffffffffffffffffffffff19166020820180517bffffffffffffffffffffffffffffffffffffffffffffffffffffffff8381831617835250505050613f43565b50505050565b613f1a838383604051602401613e9893929190614ed7565b6040516020818303038152906040527f2ced7cef000000000000000000000000000000000000000000000000000000007bffffffffffffffffffffffffffffffffffffffffffffffffffffffff19166020820180517bffffffffffffffffffffffffffffffffffffffffffffffffffffffff8381831617835250505050613f43565b505050565b600081600001549050919050565b6001816000016000828254019250508190555050565b60008151905060006a636f6e736f6c652e6c6f679050602083016000808483855afa5050505050565b60405180610100016040528060008152602001600073ffffffffffffffffffffffffffffffffffffffff1681526020016060815260200160608152602001606081526020016060815260200160608152602001600081525090565b60405180610120016040528060008152602001600073ffffffffffffffffffffffffffffffffffffffff168152602001606081526020016060815260200160608152602001606081526020016060815260200160608152602001600081525090565b82805461403590614c4a565b90600052602060002090601f016020900481019282614057576000855561409e565b82601f1061407057805160ff191683800117855561409e565b8280016001018555821561409e579182015b8281111561409d578251825591602001919060010190614082565b5b5090506140ab91906140af565b5090565b5b808211156140c85760008160009055506001016140b0565b5090565b6000604051905090565b600080fd5b600080fd5b600073ffffffffffffffffffffffffffffffffffffffff82169050919050565b600061410b826140e0565b9050919050565b61411b81614100565b811461412657600080fd5b50565b60008135905061413881614112565b92915050565b600060208284031215614154576141536140d6565b5b600061416284828501614129565b91505092915050565b6000819050919050565b61417e8161416b565b82525050565b61418d81614100565b82525050565b600081519050919050565b600082825260208201905092915050565b60005b838110156141cd5780820151818401526020810190506141b2565b838111156141dc576000848401525b50505050565b6000601f19601f8301169050919050565b60006141fe82614193565b614208818561419e565b93506142188185602086016141af565b614221816141e2565b840191505092915050565b6000610100830160008301516142456000860182614175565b5060208301516142586020860182614184565b506040830151848203604086015261427082826141f3565b9150506060830151848203606086015261428a82826141f3565b915050608083015184820360808601526142a482826141f3565b91505060a083015184820360a08601526142be82826141f3565b91505060c083015184820360c08601526142d882826141f3565b91505060e08301516142ed60e0860182614175565b508091505092915050565b60006020820190508181036000830152614312818461422c565b905092915050565b6000610120830160008301516143336000860182614175565b5060208301516143466020860182614184565b506040830151848203604086015261435e82826141f3565b9150506060830151848203606086015261437882826141f3565b9150506080830151848203608086015261439282826141f3565b91505060a083015184820360a08601526143ac82826141f3565b91505060c083015184820360c08601526143c682826141f3565b91505060e083015184820360e08601526143e082826141f3565b9150506101008301516143f7610100860182614175565b508091505092915050565b6000602082019050818103600083015261441c818461431a565b905092915050565b61442d8161416b565b811461443857600080fd5b50565b60008135905061444a81614424565b92915050565b600060208284031215614466576144656140d6565b5b60006144748482850161443b565b91505092915050565b60008115159050919050565b6144928161447d565b82525050565b60006020820190506144ad6000830184614489565b92915050565b600080fd5b600080fd5b7f4e487b7100000000000000000000000000000000000000000000000000000000600052604160045260246000fd5b6144f5826141e2565b810181811067ffffffffffffffff82111715614514576145136144bd565b5b80604052505050565b60006145276140cc565b905061453382826144ec565b919050565b600067ffffffffffffffff821115614553576145526144bd565b5b61455c826141e2565b9050602081019050919050565b82818337600083830152505050565b600061458b61458684614538565b61451d565b9050828152602081018484840111156145a7576145a66144b8565b5b6145b2848285614569565b509392505050565b600082601f8301126145cf576145ce6144b3565b5b81356145df848260208601614578565b91505092915050565b60008060008060008060c08789031215614605576146046140d6565b5b600061461389828a01614129565b965050602087013567ffffffffffffffff811115614634576146336140db565b5b61464089828a016145ba565b955050604087013567ffffffffffffffff811115614661576146606140db565b5b61466d89828a016145ba565b945050606087013567ffffffffffffffff81111561468e5761468d6140db565b5b61469a89828a016145ba565b935050608087013567ffffffffffffffff8111156146bb576146ba6140db565b5b6146c789828a016145ba565b92505060a087013567ffffffffffffffff8111156146e8576146e76140db565b5b6146f489828a016145ba565b9150509295509295509295565b60008060008060008060c0878903121561471e5761471d6140d6565b5b600087013567ffffffffffffffff81111561473c5761473b6140db565b5b61474889828a016145ba565b965050602087013567ffffffffffffffff811115614769576147686140db565b5b61477589828a016145ba565b955050604087013567ffffffffffffffff811115614796576147956140db565b5b6147a289828a016145ba565b945050606087013567ffffffffffffffff8111156147c3576147c26140db565b5b6147cf89828a016145ba565b935050608087013567ffffffffffffffff8111156147f0576147ef6140db565b5b6147fc89828a016145ba565b92505060a087013567ffffffffffffffff81111561481d5761481c6140db565b5b61482989828a016145ba565b9150509295509295509295565b6000806040838503121561484d5761484c6140d6565b5b600061485b8582860161443b565b925050602061486c85828601614129565b9150509250929050565b600081519050919050565b600082825260208201905092915050565b6000819050602082019050919050565b60006148ae8383614184565b60208301905092915050565b6000602082019050919050565b60006148d282614876565b6148dc8185614881565b93506148e783614892565b8060005b838110156149185781516148ff88826148a2565b975061490a836148ba565b9250506001810190506148eb565b5085935050505092915050565b6000602082019050818103600083015261493f81846148c7565b905092915050565b6149508161447d565b811461495b57600080fd5b50565b60008135905061496d81614947565b92915050565b600080600080600080600060e0888a031215614992576149916140d6565b5b60006149a08a828b01614129565b975050602088013567ffffffffffffffff8111156149c1576149c06140db565b5b6149cd8a828b016145ba565b965050604088013567ffffffffffffffff8111156149ee576149ed6140db565b5b6149fa8a828b016145ba565b955050606088013567ffffffffffffffff811115614a1b57614a1a6140db565b5b614a278a828b016145ba565b945050608088013567ffffffffffffffff811115614a4857614a476140db565b5b614a548a828b016145ba565b93505060a088013567ffffffffffffffff811115614a7557614a746140db565b5b614a818a828b016145ba565b92505060c0614a928a828b0161495e565b91505092959891949750929550565b614aaa8161416b565b82525050565b6000602082019050614ac56000830184614aa1565b92915050565b600060208284031215614ae157614ae06140d6565b5b600082013567ffffffffffffffff811115614aff57614afe6140db565b5b614b0b848285016145ba565b91505092915050565b600080600080600060a08688031215614b3057614b2f6140d6565b5b600086013567ffffffffffffffff811115614b4e57614b4d6140db565b5b614b5a888289016145ba565b955050602086013567ffffffffffffffff811115614b7b57614b7a6140db565b5b614b87888289016145ba565b945050604086013567ffffffffffffffff811115614ba857614ba76140db565b5b614bb4888289016145ba565b935050606086013567ffffffffffffffff811115614bd557614bd46140db565b5b614be1888289016145ba565b925050608086013567ffffffffffffffff811115614c0257614c016140db565b5b614c0e888289016145ba565b9150509295509295909350565b7f4e487b7100000000000000000000000000000000000000000000000000000000600052602260045260246000fd5b60006002820490506001821680614c6257607f821691505b60208210811415614c7657614c75614c1b565b5b50919050565b600082825260208201905092915050565b6000614c9882614193565b614ca28185614c7c565b9350614cb28185602086016141af565b614cbb816141e2565b840191505092915050565b600061010082019050614cdc600083018b614aa1565b8181036020830152614cee818a614c8d565b90508181036040830152614d028189614c8d565b90508181036060830152614d168188614c8d565b90508181036080830152614d2a8187614c8d565b905081810360a0830152614d3e8186614c8d565b905081810360c0830152614d528185614c8d565b9050614d6160e0830184614aa1565b9998505050505050505050565b600060e082019050614d83600083018a614aa1565b8181036020830152614d958189614c8d565b90508181036040830152614da98188614c8d565b90508181036060830152614dbd8187614c8d565b90508181036080830152614dd18186614c8d565b905081810360a0830152614de58185614c8d565b9050614df460c0830184614aa1565b98975050505050505050565b600081905092915050565b6000614e1682614193565b614e208185614e00565b9350614e308185602086016141af565b80840191505092915050565b6000614e488284614e0b565b915081905092915050565b60006020820190508181036000830152614e6d8184614c8d565b905092915050565b614e7e81614100565b82525050565b6000608082019050614e996000830187614e75565b8181036020830152614eab8186614c8d565b9050614eba6040830185614aa1565b8181036060830152614ecc8184614c8d565b905095945050505050565b60006060820190508181036000830152614ef18186614c8d565b90508181036020830152614f058185614c8d565b90508181036040830152614f198184614c8d565b905094935050505056fe307836416132613745386334463834393939393930364563326646333732313163324430303538346564a26469706673582212200574c909e0146478a49cdb7730778fad39f4c7e2f98d3e82dfe1b3809044bcad64736f6c63430008090033",
  "linkReferences": {},
  "deployedLinkReferences": {}
}