{
  "_format": "hh-sol-artifact-1",
  "contractName": "DistributedMedicalDatabase",
  "sourceName": "contracts/DistributedMedicalDatabase.sol",
  "abi": [
    {
      "inputs": [],
      "stateMutability": "nonpayable",
      "type": "constructor"
    },
    {
      "anonymous": false,
      "inputs": [
        {
          "indexed": false,
          "internalType": "uint256",
          "name": "id",
          "type": "uint256"
        },
        {
          "indexed": true,
          "internalType": "address",
          "name": "from",
          "type": "address"
        },
        {
          "indexed": false,
          "internalType": "string",
          "name": "familyname",
          "type": "string"
        },
        {
          "indexed": false,
          "internalType": "string",
          "name": "firstname",
          "type": "string"
        },
        {
          "indexed": false,
          "internalType": "string",
          "name": "furiganafamilyname",
          "type": "string"
        },
        {
          "indexed": false,
          "internalType": "string",
          "name": "furiganafirstname",
          "type": "string"
        },
        {
          "indexed": false,
          "internalType": "string",
          "name": "bloodtype",
          "type": "string"
        },
        {
          "indexed": false,
          "internalType": "uint256",
          "name": "lasttimestamp",
          "type": "uint256"
        }
      ],
      "name": "NewMedicalDataAboutPatient",
      "type": "event"
    },
    {
      "inputs": [],
      "name": "check_if_healthcare_worker_registered",
      "outputs": [
        {
          "internalType": "bool",
          "name": "success",
          "type": "bool"
        }
      ],
      "stateMutability": "view",
      "type": "function"
    },
    {
      "inputs": [],
      "name": "check_if_patient_registered",
      "outputs": [
        {
          "internalType": "bool",
          "name": "success",
          "type": "bool"
        }
      ],
      "stateMutability": "view",
      "type": "function"
    },
    {
      "inputs": [
        {
          "internalType": "address",
          "name": "_patient",
          "type": "address"
        }
      ],
      "name": "get_medical_data_by_others",
      "outputs": [
        {
          "components": [
            {
              "internalType": "uint256",
              "name": "id",
              "type": "uint256"
            },
            {
              "internalType": "address",
              "name": "patient",
              "type": "address"
            },
            {
              "internalType": "string",
              "name": "familyname",
              "type": "string"
            },
            {
              "internalType": "string",
              "name": "firstname",
              "type": "string"
            },
            {
              "internalType": "string",
              "name": "furiganafamilyname",
              "type": "string"
            },
            {
              "internalType": "string",
              "name": "furiganafirstname",
              "type": "string"
            },
            {
              "internalType": "string",
              "name": "bloodtype",
              "type": "string"
            },
            {
              "internalType": "uint256",
              "name": "lasttimestamp",
              "type": "uint256"
            }
          ],
          "internalType": "struct DistributedMedicalDatabase.MedicalDataAboutPatient",
          "name": "",
          "type": "tuple"
        }
      ],
      "stateMutability": "view",
      "type": "function"
    },
    {
      "inputs": [],
      "name": "get_medical_data_by_patient",
      "outputs": [
        {
          "components": [
            {
              "internalType": "uint256",
              "name": "id",
              "type": "uint256"
            },
            {
              "internalType": "address",
              "name": "patient",
              "type": "address"
            },
            {
              "internalType": "string",
              "name": "familyname",
              "type": "string"
            },
            {
              "internalType": "string",
              "name": "firstname",
              "type": "string"
            },
            {
              "internalType": "string",
              "name": "furiganafamilyname",
              "type": "string"
            },
            {
              "internalType": "string",
              "name": "furiganafirstname",
              "type": "string"
            },
            {
              "internalType": "string",
              "name": "bloodtype",
              "type": "string"
            },
            {
              "internalType": "uint256",
              "name": "lasttimestamp",
              "type": "uint256"
            }
          ],
          "internalType": "struct DistributedMedicalDatabase.MedicalDataAboutPatient",
          "name": "",
          "type": "tuple"
        }
      ],
      "stateMutability": "view",
      "type": "function"
    },
    {
      "inputs": [
        {
          "internalType": "uint256",
          "name": "_num",
          "type": "uint256"
        }
      ],
      "name": "give_authority_to_access",
      "outputs": [],
      "stateMutability": "nonpayable",
      "type": "function"
    },
    {
      "inputs": [
        {
          "internalType": "uint256",
          "name": "_num",
          "type": "uint256"
        }
      ],
      "name": "give_authority_to_edit",
      "outputs": [],
      "stateMutability": "nonpayable",
      "type": "function"
    },
    {
      "inputs": [
        {
          "internalType": "address",
          "name": "_p",
          "type": "address"
        },
        {
          "internalType": "string",
          "name": "_fa",
          "type": "string"
        },
        {
          "internalType": "string",
          "name": "_fi",
          "type": "string"
        },
        {
          "internalType": "string",
          "name": "_furiganafa",
          "type": "string"
        },
        {
          "internalType": "string",
          "name": "_furiganafi",
          "type": "string"
        },
        {
          "internalType": "string",
          "name": "_b",
          "type": "string"
        }
      ],
      "name": "register_content_for_patient",
      "outputs": [],
      "stateMutability": "nonpayable",
      "type": "function"
    },
    {
      "inputs": [
        {
          "internalType": "address",
          "name": "_patientwallet",
          "type": "address"
        },
        {
          "internalType": "string",
          "name": "_familyname",
          "type": "string"
        },
        {
          "internalType": "string",
          "name": "_firstname",
          "type": "string"
        },
        {
          "internalType": "string",
          "name": "_furiganafamilyname",
          "type": "string"
        },
        {
          "internalType": "string",
          "name": "_furiganafirstname",
          "type": "string"
        },
        {
          "internalType": "string",
          "name": "_bloodtype",
          "type": "string"
        }
      ],
      "name": "register_for_patient_by_others",
      "outputs": [],
      "stateMutability": "nonpayable",
      "type": "function"
    },
    {
      "inputs": [
        {
          "internalType": "string",
          "name": "_familyname",
          "type": "string"
        },
        {
          "internalType": "string",
          "name": "_firstname",
          "type": "string"
        },
        {
          "internalType": "string",
          "name": "_furiganafamilyname",
          "type": "string"
        },
        {
          "internalType": "string",
          "name": "_furiganafirstname",
          "type": "string"
        },
        {
          "internalType": "string",
          "name": "_bloodtype",
          "type": "string"
        }
      ],
      "name": "register_for_patient_by_patient",
      "outputs": [],
      "stateMutability": "nonpayable",
      "type": "function"
    },
    {
      "inputs": [
        {
          "internalType": "uint256",
          "name": "_num",
          "type": "uint256"
        }
      ],
      "name": "usurp_ones_authority_to_access",
      "outputs": [],
      "stateMutability": "nonpayable",
      "type": "function"
    },
    {
      "inputs": [
        {
          "internalType": "uint256",
          "name": "_num",
          "type": "uint256"
        }
      ],
      "name": "usurp_ones_authority_to_edit",
      "outputs": [],
      "stateMutability": "nonpayable",
      "type": "function"
    },
    {
      "inputs": [
        {
          "internalType": "string",
          "name": "_pass",
          "type": "string"
        }
      ],
      "name": "verify_password",
      "outputs": [
        {
          "internalType": "bool",
          "name": "success",
          "type": "bool"
        }
      ],
      "stateMutability": "pure",
      "type": "function"
    }
  ],
  "bytecode": "0x60806040523480156200001157600080fd5b506200005d6040518060400160405280602081526020017f48657265206973206d7920666972737420736d61727420636f6e7472616374218152506200006360201b6200130d1760201c565b620001f7565b62000103816040516024016200007a9190620001d3565b6040516020818303038152906040527f41304fac000000000000000000000000000000000000000000000000000000007bffffffffffffffffffffffffffffffffffffffffffffffffffffffff19166020820180517bffffffffffffffffffffffffffffffffffffffffffffffffffffffff83818316178352505050506200010660201b60201c565b50565b60008151905060006a636f6e736f6c652e6c6f679050602083016000808483855afa5050505050565b600081519050919050565b600082825260208201905092915050565b60005b838110156200016b5780820151818401526020810190506200014e565b838111156200017b576000848401525b50505050565b6000601f19601f8301169050919050565b60006200019f826200012f565b620001ab81856200013a565b9350620001bd8185602086016200014b565b620001c88162000181565b840191505092915050565b60006020820190508181036000830152620001ef818462000192565b905092915050565b611f7c80620002076000396000f3fe608060405234801561001057600080fd5b50600436106100b35760003560e01c8063515da6a211610071578063515da6a2146101785780637989900e14610194578063cde0feb9146101b0578063e9f691c5146101cc578063f5d84cb3146101e8578063f9ec9f7014610218576100b3565b8062359a4b146100b85780630b12c673146100e85780634417b62d146101045780634caa6366146101205780634dab583c1461013e5780634e095f9c1461015a575b600080fd5b6100d260048036038101906100cd91906116a4565b610236565b6040516100df919061185e565b60405180910390f35b61010260048036038101906100fd91906118ac565b6106df565b005b61011e600480360381019061011991906118ac565b610754565b005b6101286107c9565b60405161013591906118f4565b60405180910390f35b61015860048036038101906101539190611a44565b61081d565b005b610162610832565b60405161016f919061185e565b60405180910390f35b610192600480360381019061018d91906118ac565b610c68565b005b6101ae60048036038101906101a99190611b4b565b610cdd565b005b6101ca60048036038101906101c591906118ac565b610d49565b005b6101e660048036038101906101e19190611b4b565b610dbe565b005b61020260048036038101906101fd9190611c64565b61121e565b60405161020f91906118f4565b60405180910390f35b6102206112b9565b60405161022d91906118f4565b60405180910390f35b61023e611534565b600260003373ffffffffffffffffffffffffffffffffffffffff1673ffffffffffffffffffffffffffffffffffffffff16815260200190815260200160002060009054906101000a900460ff1661029457600080fd5b6000600460008473ffffffffffffffffffffffffffffffffffffffff1673ffffffffffffffffffffffffffffffffffffffff16815260200190815260200160002054905060006001600083815260200190815260200160002090508060000160003373ffffffffffffffffffffffffffffffffffffffff1673ffffffffffffffffffffffffffffffffffffffff16815260200190815260200160002060009054906101000a900460ff1661034757600080fd5b600560008573ffffffffffffffffffffffffffffffffffffffff1673ffffffffffffffffffffffffffffffffffffffff16815260200190815260200160002060405180610100016040529081600082015481526020016001820160009054906101000a900473ffffffffffffffffffffffffffffffffffffffff1673ffffffffffffffffffffffffffffffffffffffff1673ffffffffffffffffffffffffffffffffffffffff16815260200160028201805461040290611cdc565b80601f016020809104026020016040519081016040528092919081815260200182805461042e90611cdc565b801561047b5780601f106104505761010080835404028352916020019161047b565b820191906000526020600020905b81548152906001019060200180831161045e57829003601f168201915b5050505050815260200160038201805461049490611cdc565b80601f01602080910402602001604051908101604052809291908181526020018280546104c090611cdc565b801561050d5780601f106104e25761010080835404028352916020019161050d565b820191906000526020600020905b8154815290600101906020018083116104f057829003601f168201915b5050505050815260200160048201805461052690611cdc565b80601f016020809104026020016040519081016040528092919081815260200182805461055290611cdc565b801561059f5780601f106105745761010080835404028352916020019161059f565b820191906000526020600020905b81548152906001019060200180831161058257829003601f168201915b505050505081526020016005820180546105b890611cdc565b80601f01602080910402602001604051908101604052809291908181526020018280546105e490611cdc565b80156106315780601f1061060657610100808354040283529160200191610631565b820191906000526020600020905b81548152906001019060200180831161061457829003601f168201915b5050505050815260200160068201805461064a90611cdc565b80601f016020809104026020016040519081016040528092919081815260200182805461067690611cdc565b80156106c35780601f10610698576101008083540402835291602001916106c3565b820191906000526020600020905b8154815290600101906020018083116106a657829003601f168201915b5050505050815260200160078201548152505092505050919050565b600060016000838152602001908152602001600020905060018160010160003373ffffffffffffffffffffffffffffffffffffffff1673ffffffffffffffffffffffffffffffffffffffff16815260200190815260200160002060006101000a81548160ff0219169083151502179055505050565b600060016000838152602001908152602001600020905060008160000160003373ffffffffffffffffffffffffffffffffffffffff1673ffffffffffffffffffffffffffffffffffffffff16815260200190815260200160002060006101000a81548160ff0219169083151502179055505050565b6000600360003373ffffffffffffffffffffffffffffffffffffffff1673ffffffffffffffffffffffffffffffffffffffff16815260200190815260200160002060009054906101000a900460ff16905090565b61082b338686868686610dbe565b5050505050565b61083a611534565b600560003373ffffffffffffffffffffffffffffffffffffffff1673ffffffffffffffffffffffffffffffffffffffff16815260200190815260200160002060010160009054906101000a900473ffffffffffffffffffffffffffffffffffffffff1673ffffffffffffffffffffffffffffffffffffffff163373ffffffffffffffffffffffffffffffffffffffff16146108d457600080fd5b600560003373ffffffffffffffffffffffffffffffffffffffff1673ffffffffffffffffffffffffffffffffffffffff16815260200190815260200160002060405180610100016040529081600082015481526020016001820160009054906101000a900473ffffffffffffffffffffffffffffffffffffffff1673ffffffffffffffffffffffffffffffffffffffff1673ffffffffffffffffffffffffffffffffffffffff16815260200160028201805461098f90611cdc565b80601f01602080910402602001604051908101604052809291908181526020018280546109bb90611cdc565b8015610a085780601f106109dd57610100808354040283529160200191610a08565b820191906000526020600020905b8154815290600101906020018083116109eb57829003601f168201915b50505050508152602001600382018054610a2190611cdc565b80601f0160208091040260200160405190810160405280929190818152602001828054610a4d90611cdc565b8015610a9a5780601f10610a6f57610100808354040283529160200191610a9a565b820191906000526020600020905b815481529060010190602001808311610a7d57829003601f168201915b50505050508152602001600482018054610ab390611cdc565b80601f0160208091040260200160405190810160405280929190818152602001828054610adf90611cdc565b8015610b2c5780601f10610b0157610100808354040283529160200191610b2c565b820191906000526020600020905b815481529060010190602001808311610b0f57829003601f168201915b50505050508152602001600582018054610b4590611cdc565b80601f0160208091040260200160405190810160405280929190818152602001828054610b7190611cdc565b8015610bbe5780601f10610b9357610100808354040283529160200191610bbe565b820191906000526020600020905b815481529060010190602001808311610ba157829003601f168201915b50505050508152602001600682018054610bd790611cdc565b80601f0160208091040260200160405190810160405280929190818152602001828054610c0390611cdc565b8015610c505780601f10610c2557610100808354040283529160200191610c50565b820191906000526020600020905b815481529060010190602001808311610c3357829003601f168201915b50505050508152602001600782015481525050905090565b600060016000838152602001908152602001600020905060008160000160003373ffffffffffffffffffffffffffffffffffffffff1673ffffffffffffffffffffffffffffffffffffffff16815260200190815260200160002060006101000a81548160ff0219169083151502179055505050565b600260003373ffffffffffffffffffffffffffffffffffffffff1673ffffffffffffffffffffffffffffffffffffffff16815260200190815260200160002060009054906101000a900460ff16610d3357600080fd5b610d41868686868686610dbe565b505050505050565b600060016000838152602001908152602001600020905060018160000160003373ffffffffffffffffffffffffffffffffffffffff1673ffffffffffffffffffffffffffffffffffffffff16815260200190815260200160002060006101000a81548160ff0219169083151502179055505050565b6000610dca60006113a6565b9050610e42336040518060400160405280600b81526020017f20706f7374656420772f20000000000000000000000000000000000000000000815250836040518060400160405280600781526020017f20646174617320000000000000000000000000000000000000000000000000008152506113b4565b610e82866040518060400160405280600181526020017f200000000000000000000000000000000000000000000000000000000000000081525087611456565b610ec2846040518060400160405280600181526020017f200000000000000000000000000000000000000000000000000000000000000081525085611456565b610ecb8261130d565b6040518061010001604052808281526020018873ffffffffffffffffffffffffffffffffffffffff16815260200187815260200186815260200185815260200184815260200183815260200142815250600560008973ffffffffffffffffffffffffffffffffffffffff1673ffffffffffffffffffffffffffffffffffffffff1681526020019081526020016000206000820151816000015560208201518160010160006101000a81548173ffffffffffffffffffffffffffffffffffffffff021916908373ffffffffffffffffffffffffffffffffffffffff1602179055506040820151816002019080519060200190610fc792919061158f565b506060820151816003019080519060200190610fe492919061158f565b50608082015181600401908051906020019061100192919061158f565b5060a082015181600501908051906020019061101e92919061158f565b5060c082015181600601908051906020019061103b92919061158f565b5060e08201518160070155905050600060016000838152602001908152602001600020905060018160000160008a73ffffffffffffffffffffffffffffffffffffffff1673ffffffffffffffffffffffffffffffffffffffff16815260200190815260200160002060006101000a81548160ff02191690831515021790555060018160010160008a73ffffffffffffffffffffffffffffffffffffffff1673ffffffffffffffffffffffffffffffffffffffff16815260200190815260200160002060006101000a81548160ff0219169083151502179055506001600360008a73ffffffffffffffffffffffffffffffffffffffff1673ffffffffffffffffffffffffffffffffffffffff16815260200190815260200160002060006101000a81548160ff02191690831515021790555081600460008a73ffffffffffffffffffffffffffffffffffffffff1673ffffffffffffffffffffffffffffffffffffffff168152602001908152602001600020819055508773ffffffffffffffffffffffffffffffffffffffff167f32417e7b0169af19e2c6e5ea4be20c1e786276ee4bfed8596168e37f9e3f7b0d838989898989426040516112029796959493929190611d67565b60405180910390a261121460006114f5565b5050505050505050565b600081516040518060600160405280602a8152602001611f1d602a9139511461124a57600090506112b4565b8160405160200161125b9190611e35565b604051602081830303815290604052805190602001206040518060600160405280602a8152602001611f1d602a913960405160200161129a9190611e35565b604051602081830303815290604052805190602001201490505b919050565b6000600260003373ffffffffffffffffffffffffffffffffffffffff1673ffffffffffffffffffffffffffffffffffffffff16815260200190815260200160002060009054906101000a900460ff16905090565b6113a3816040516024016113219190611e4c565b6040516020818303038152906040527f41304fac000000000000000000000000000000000000000000000000000000007bffffffffffffffffffffffffffffffffffffffffffffffffffffffff19166020820180517bffffffffffffffffffffffffffffffffffffffffffffffffffffffff838183161783525050505061150b565b50565b600081600001549050919050565b611450848484846040516024016113ce9493929190611e7d565b6040516020818303038152906040527f448830a8000000000000000000000000000000000000000000000000000000007bffffffffffffffffffffffffffffffffffffffffffffffffffffffff19166020820180517bffffffffffffffffffffffffffffffffffffffffffffffffffffffff838183161783525050505061150b565b50505050565b6114f083838360405160240161146e93929190611ed0565b6040516020818303038152906040527f2ced7cef000000000000000000000000000000000000000000000000000000007bffffffffffffffffffffffffffffffffffffffffffffffffffffffff19166020820180517bffffffffffffffffffffffffffffffffffffffffffffffffffffffff838183161783525050505061150b565b505050565b6001816000016000828254019250508190555050565b60008151905060006a636f6e736f6c652e6c6f679050602083016000808483855afa5050505050565b60405180610100016040528060008152602001600073ffffffffffffffffffffffffffffffffffffffff1681526020016060815260200160608152602001606081526020016060815260200160608152602001600081525090565b82805461159b90611cdc565b90600052602060002090601f0160209004810192826115bd5760008555611604565b82601f106115d657805160ff1916838001178555611604565b82800160010185558215611604579182015b828111156116035782518255916020019190600101906115e8565b5b5090506116119190611615565b5090565b5b8082111561162e576000816000905550600101611616565b5090565b6000604051905090565b600080fd5b600080fd5b600073ffffffffffffffffffffffffffffffffffffffff82169050919050565b600061167182611646565b9050919050565b61168181611666565b811461168c57600080fd5b50565b60008135905061169e81611678565b92915050565b6000602082840312156116ba576116b961163c565b5b60006116c88482850161168f565b91505092915050565b6000819050919050565b6116e4816116d1565b82525050565b6116f381611666565b82525050565b600081519050919050565b600082825260208201905092915050565b60005b83811015611733578082015181840152602081019050611718565b83811115611742576000848401525b50505050565b6000601f19601f8301169050919050565b6000611764826116f9565b61176e8185611704565b935061177e818560208601611715565b61178781611748565b840191505092915050565b6000610100830160008301516117ab60008601826116db565b5060208301516117be60208601826116ea565b50604083015184820360408601526117d68282611759565b915050606083015184820360608601526117f08282611759565b9150506080830151848203608086015261180a8282611759565b91505060a083015184820360a08601526118248282611759565b91505060c083015184820360c086015261183e8282611759565b91505060e083015161185360e08601826116db565b508091505092915050565b600060208201905081810360008301526118788184611792565b905092915050565b611889816116d1565b811461189457600080fd5b50565b6000813590506118a681611880565b92915050565b6000602082840312156118c2576118c161163c565b5b60006118d084828501611897565b91505092915050565b60008115159050919050565b6118ee816118d9565b82525050565b600060208201905061190960008301846118e5565b92915050565b600080fd5b600080fd5b7f4e487b7100000000000000000000000000000000000000000000000000000000600052604160045260246000fd5b61195182611748565b810181811067ffffffffffffffff821117156119705761196f611919565b5b80604052505050565b6000611983611632565b905061198f8282611948565b919050565b600067ffffffffffffffff8211156119af576119ae611919565b5b6119b882611748565b9050602081019050919050565b82818337600083830152505050565b60006119e76119e284611994565b611979565b905082815260208101848484011115611a0357611a02611914565b5b611a0e8482856119c5565b509392505050565b600082601f830112611a2b57611a2a61190f565b5b8135611a3b8482602086016119d4565b91505092915050565b600080600080600060a08688031215611a6057611a5f61163c565b5b600086013567ffffffffffffffff811115611a7e57611a7d611641565b5b611a8a88828901611a16565b955050602086013567ffffffffffffffff811115611aab57611aaa611641565b5b611ab788828901611a16565b945050604086013567ffffffffffffffff811115611ad857611ad7611641565b5b611ae488828901611a16565b935050606086013567ffffffffffffffff811115611b0557611b04611641565b5b611b1188828901611a16565b925050608086013567ffffffffffffffff811115611b3257611b31611641565b5b611b3e88828901611a16565b9150509295509295909350565b60008060008060008060c08789031215611b6857611b6761163c565b5b6000611b7689828a0161168f565b965050602087013567ffffffffffffffff811115611b9757611b96611641565b5b611ba389828a01611a16565b955050604087013567ffffffffffffffff811115611bc457611bc3611641565b5b611bd089828a01611a16565b945050606087013567ffffffffffffffff811115611bf157611bf0611641565b5b611bfd89828a01611a16565b935050608087013567ffffffffffffffff811115611c1e57611c1d611641565b5b611c2a89828a01611a16565b92505060a087013567ffffffffffffffff811115611c4b57611c4a611641565b5b611c5789828a01611a16565b9150509295509295509295565b600060208284031215611c7a57611c7961163c565b5b600082013567ffffffffffffffff811115611c9857611c97611641565b5b611ca484828501611a16565b91505092915050565b7f4e487b7100000000000000000000000000000000000000000000000000000000600052602260045260246000fd5b60006002820490506001821680611cf457607f821691505b60208210811415611d0857611d07611cad565b5b50919050565b611d17816116d1565b82525050565b600082825260208201905092915050565b6000611d39826116f9565b611d438185611d1d565b9350611d53818560208601611715565b611d5c81611748565b840191505092915050565b600060e082019050611d7c600083018a611d0e565b8181036020830152611d8e8189611d2e565b90508181036040830152611da28188611d2e565b90508181036060830152611db68187611d2e565b90508181036080830152611dca8186611d2e565b905081810360a0830152611dde8185611d2e565b9050611ded60c0830184611d0e565b98975050505050505050565b600081905092915050565b6000611e0f826116f9565b611e198185611df9565b9350611e29818560208601611715565b80840191505092915050565b6000611e418284611e04565b915081905092915050565b60006020820190508181036000830152611e668184611d2e565b905092915050565b611e7781611666565b82525050565b6000608082019050611e926000830187611e6e565b8181036020830152611ea48186611d2e565b9050611eb36040830185611d0e565b8181036060830152611ec58184611d2e565b905095945050505050565b60006060820190508181036000830152611eea8186611d2e565b90508181036020830152611efe8185611d2e565b90508181036040830152611f128184611d2e565b905094935050505056fe307836416132613745386334463834393939393930364563326646333732313163324430303538346564a2646970667358221220fca7c06aba3e2939d04418d44def7ca7f33bd516fc87c2593c2059164bd0580d64736f6c63430008090033",
  "linkReferences": {},
  "deployedLinkReferences": {}
}